{
  "contracts/Raffle.sol": {
    "Raffle": {
      "abi": [
        {
          "inputs": [
            {
              "internalType": "address",
              "name": "vrfCoordinatorV2",
              "type": "address"
            },
            {
              "internalType": "uint256",
              "name": "entranceFee",
              "type": "uint256"
            },
            {
              "internalType": "bytes32",
              "name": "gasLane",
              "type": "bytes32"
            },
            {
              "internalType": "uint64",
              "name": "subscriptionId",
              "type": "uint64"
            },
            {
              "internalType": "uint32",
              "name": "callbackGasLimit",
              "type": "uint32"
            },
            {
              "internalType": "uint256",
              "name": "interval",
              "type": "uint256"
            }
          ],
          "stateMutability": "nonpayable",
          "type": "constructor"
        },
        {
          "inputs": [
            {
              "internalType": "address",
              "name": "have",
              "type": "address"
            },
            {
              "internalType": "address",
              "name": "want",
              "type": "address"
            }
          ],
          "name": "OnlyCoordinatorCanFulfill",
          "type": "error"
        },
        {
          "inputs": [],
          "name": "Raffle__NotEnoughETHEntered",
          "type": "error"
        },
        {
          "inputs": [],
          "name": "Raffle__NotOpen",
          "type": "error"
        },
        {
          "inputs": [],
          "name": "Raffle__TransferFailed",
          "type": "error"
        },
        {
          "inputs": [
            {
              "internalType": "uint256",
              "name": "currentBalance",
              "type": "uint256"
            },
            {
              "internalType": "uint256",
              "name": "numPlayers",
              "type": "uint256"
            },
            {
              "internalType": "uint256",
              "name": "raffleState",
              "type": "uint256"
            }
          ],
          "name": "Raffle__UpkeepNotNeeded",
          "type": "error"
        },
        {
          "anonymous": false,
          "inputs": [
            {
              "indexed": true,
              "internalType": "address",
              "name": "player",
              "type": "address"
            }
          ],
          "name": "RaffleEnter",
          "type": "event"
        },
        {
          "anonymous": false,
          "inputs": [
            {
              "indexed": true,
              "internalType": "uint256",
              "name": "requestId",
              "type": "uint256"
            }
          ],
          "name": "RequestedRaffleWinner",
          "type": "event"
        },
        {
          "anonymous": false,
          "inputs": [
            {
              "indexed": true,
              "internalType": "address",
              "name": "winner",
              "type": "address"
            }
          ],
          "name": "WinnerPicked",
          "type": "event"
        },
        {
          "inputs": [
            {
              "internalType": "bytes",
              "name": "",
              "type": "bytes"
            }
          ],
          "name": "checkUpkeep",
          "outputs": [
            {
              "internalType": "bool",
              "name": "upkeepNeeded",
              "type": "bool"
            },
            {
              "internalType": "bytes",
              "name": "",
              "type": "bytes"
            }
          ],
          "stateMutability": "nonpayable",
          "type": "function"
        },
        {
          "inputs": [],
          "name": "enterRaffle",
          "outputs": [],
          "stateMutability": "payable",
          "type": "function"
        },
        {
          "inputs": [],
          "name": "getEntranceFee",
          "outputs": [
            {
              "internalType": "uint256",
              "name": "",
              "type": "uint256"
            }
          ],
          "stateMutability": "view",
          "type": "function"
        },
        {
          "inputs": [
            {
              "internalType": "uint256",
              "name": "index",
              "type": "uint256"
            }
          ],
          "name": "getPLayer",
          "outputs": [
            {
              "internalType": "address",
              "name": "",
              "type": "address"
            }
          ],
          "stateMutability": "view",
          "type": "function"
        },
        {
          "inputs": [],
          "name": "getRaffleState",
          "outputs": [
            {
              "internalType": "enum Raffle.RaffleState",
              "name": "",
              "type": "uint8"
            }
          ],
          "stateMutability": "view",
          "type": "function"
        },
        {
          "inputs": [],
          "name": "getRecentWinner",
          "outputs": [
            {
              "internalType": "address",
              "name": "",
              "type": "address"
            }
          ],
          "stateMutability": "view",
          "type": "function"
        },
        {
          "inputs": [
            {
              "internalType": "bytes",
              "name": "",
              "type": "bytes"
            }
          ],
          "name": "performUpkeep",
          "outputs": [],
          "stateMutability": "nonpayable",
          "type": "function"
        },
        {
          "inputs": [
            {
              "internalType": "uint256",
              "name": "requestId",
              "type": "uint256"
            },
            {
              "internalType": "uint256[]",
              "name": "randomWords",
              "type": "uint256[]"
            }
          ],
          "name": "rawFulfillRandomWords",
          "outputs": [],
          "stateMutability": "nonpayable",
          "type": "function"
        }
      ],
      "devdoc": {
        "author": "Patrick Collins",
        "details": "This implements Clainlink VRF v2 and Chainlink Keepers.",
        "kind": "dev",
        "methods": {
          "checkUpkeep(bytes)": {
            "details": "This is the function that the Chainlink Keeper nodes call they look for the 'upkeepNeeded' to return true having bytes calldata allows us to specify whatever we want when calling this function we can even call other functions with this The following should be true in order to return true: 1. Our time interval should have passed 2. The lottery should have at least 1 player, and have some ETH 3. Our subscription is funded with LINK 4. Lottery should be in an open state"
          }
        },
        "title": "A sample Raffle Contract",
        "version": 1
      },
      "evm": {
        "bytecode": {
          "linkReferences": {},
          "object": "6101606040523480156200001257600080fd5b50604051620016db380380620016db8339818101604052810190620000389190620001ad565b858073ffffffffffffffffffffffffffffffffffffffff1660808173ffffffffffffffffffffffffffffffffffffffff1660601b81525050508460a081815250508573ffffffffffffffffffffffffffffffffffffffff1660c08173ffffffffffffffffffffffffffffffffffffffff1660601b815250508360e081815250508267ffffffffffffffff166101008167ffffffffffffffff1660c01b815250508163ffffffff166101208163ffffffff1660e01b815250506000600160146101000a81548160ff02191690836001811115620001195762000118620002b5565b5b0217905550426002819055508061014081815250505050505050506200036b565b6000815190506200014b81620002e9565b92915050565b600081519050620001628162000303565b92915050565b60008151905062000179816200031d565b92915050565b600081519050620001908162000337565b92915050565b600081519050620001a78162000351565b92915050565b60008060008060008060c08789031215620001cd57620001cc620002e4565b5b6000620001dd89828a016200013a565b9650506020620001f089828a0162000168565b95505060406200020389828a0162000151565b94505060606200021689828a0162000196565b93505060806200022989828a016200017f565b92505060a06200023c89828a0162000168565b9150509295509295509295565b6000620002568262000267565b9050919050565b6000819050919050565b600073ffffffffffffffffffffffffffffffffffffffff82169050919050565b6000819050919050565b600063ffffffff82169050919050565b600067ffffffffffffffff82169050919050565b7f4e487b7100000000000000000000000000000000000000000000000000000000600052602160045260246000fd5b600080fd5b620002f48162000249565b81146200030057600080fd5b50565b6200030e816200025d565b81146200031a57600080fd5b50565b620003288162000287565b81146200033457600080fd5b50565b620003428162000291565b81146200034e57600080fd5b50565b6200035c81620002a1565b81146200036857600080fd5b50565b60805160601c60a05160c05160601c60e0516101005160c01c6101205160e01c610140516112fb620003e060003960006106f9015260006105c4015260006105a101526000610580015260006105440152600081816101dc01526102d9015260008181610219015261026d01526112fb6000f3fe60806040526004361061007b5760003560e01c8063344cb5691161004e578063344cb569146101095780634585e33b14610146578063473f1ddc1461016f5780636e04ff0d1461019a5761007b565b806309bc33a714610080578063115cbaf5146100ab5780631fe543e3146100d65780632cfcc539146100ff575b600080fd5b34801561008c57600080fd5b506100956101d8565b6040516100a29190610eef565b60405180910390f35b3480156100b757600080fd5b506100c0610200565b6040516100cd9190610ed4565b60405180910390f35b3480156100e257600080fd5b506100fd60048036038101906100f89190610cb9565b610217565b005b6101076102d7565b005b34801561011557600080fd5b50610130600480360381019061012b9190610c5f565b610446565b60405161013d9190610e0d565b60405180910390f35b34801561015257600080fd5b5061016d60048036038101906101689190610bc9565b61048d565b005b34801561017b57600080fd5b5061018461068c565b6040516101919190610e0d565b60405180910390f35b3480156101a657600080fd5b506101c160048036038101906101bc9190610c16565b6106b6565b6040516101cf929190610e51565b60405180910390f35b60007f0000000000000000000000000000000000000000000000000000000000000000905090565b6000600160149054906101000a900460ff16905090565b7f000000000000000000000000000000000000000000000000000000000000000073ffffffffffffffffffffffffffffffffffffffff163373ffffffffffffffffffffffffffffffffffffffff16146102c957337f00000000000000000000000000000000000000000000000000000000000000006040517f1cf993f40000000000000000000000000000000000000000000000000000000081526004016102c0929190610e28565b60405180910390fd5b6102d38282610763565b5050565b7f0000000000000000000000000000000000000000000000000000000000000000341015610331576040517fbd4e069500000000000000000000000000000000000000000000000000000000815260040160405180910390fd5b60006001811115610345576103446111db565b5b600160149054906101000a900460ff166001811115610367576103666111db565b5b1461039e576040517f1425571c00000000000000000000000000000000000000000000000000000000815260040160405180910390fd5b6000339080600181540180825580915050600190039060005260206000200160009091909190916101000a81548173ffffffffffffffffffffffffffffffffffffffff021916908373ffffffffffffffffffffffffffffffffffffffff1602179055503373ffffffffffffffffffffffffffffffffffffffff167f0805e1d667bddb8a95f0f09880cf94f403fb596ce79928d9f29b74203ba284d460405160405180910390a2565b600080828154811061045b5761045a61120a565b5b9060005260206000200160009054906101000a900473ffffffffffffffffffffffffffffffffffffffff169050919050565b60006104a7604051806020016040528060008152506106b6565b509050806105165747600080549050600160149054906101000a900460ff1660018111156104d8576104d76111db565b5b6040517f584327aa00000000000000000000000000000000000000000000000000000000815260040161050d93929190610f0a565b60405180910390fd5b60018060146101000a81548160ff0219169083600181111561053b5761053a6111db565b5b021790555060007f000000000000000000000000000000000000000000000000000000000000000073ffffffffffffffffffffffffffffffffffffffff16635d3b1d307f00000000000000000000000000000000000000000000000000000000000000007f000000000000000000000000000000000000000000000000000000000000000060037f000000000000000000000000000000000000000000000000000000000000000060016040518663ffffffff1660e01b8152600401610605959493929190610e81565b602060405180830381600087803b15801561061f57600080fd5b505af1158015610633573d6000803e3d6000fd5b505050506040513d601f19601f820116820180604052508101906106579190610c8c565b9050807fcd6e45c8998311cab7e9d4385596cac867e20a0587194b954fa3a731c93ce78b60405160405180910390a250505050565b6000600160009054906101000a900473ffffffffffffffffffffffffffffffffffffffff16905090565b600060606000600160149054906101000a900460ff1660018111156106de576106dd6111db565b5b600060018111156106f2576106f16111db565b5b14905060007f0000000000000000000000000000000000000000000000000000000000000000600254426107269190610fea565b119050600080600080549050119050600080471190508380156107465750825b801561074f5750815b80156107585750805b955050505050915091565b600080805490508260008151811061077e5761077d61120a565b5b6020026020010151610790919061114c565b905060008082815481106107a7576107a661120a565b5b9060005260206000200160009054906101000a900473ffffffffffffffffffffffffffffffffffffffff16905080600160006101000a81548173ffffffffffffffffffffffffffffffffffffffff021916908373ffffffffffffffffffffffffffffffffffffffff1602179055506000600160146101000a81548160ff0219169083600181111561083b5761083a6111db565b5b0217905550600067ffffffffffffffff81111561085b5761085a611239565b5b6040519080825280602002602001820160405280156108895781602001602082028036833780820191505090505b506000908051906020019061089f929190610994565b504260028190555060008173ffffffffffffffffffffffffffffffffffffffff16476040516108cd90610df8565b60006040518083038185875af1925050503d806000811461090a576040519150601f19603f3d011682016040523d82523d6000602084013e61090f565b606091505b505090508061094a576040517fa1d04b3900000000000000000000000000000000000000000000000000000000815260040160405180910390fd5b8173ffffffffffffffffffffffffffffffffffffffff167f5b690ec4a06fe979403046eaeea5b3ce38524683c3001f662c8b5a829632f7df60405160405180910390a25050505050565b828054828255906000526020600020908101928215610a0d579160200282015b82811115610a0c5782518260006101000a81548173ffffffffffffffffffffffffffffffffffffffff021916908373ffffffffffffffffffffffffffffffffffffffff160217905550916020019190600101906109b4565b5b509050610a1a9190610a1e565b5090565b5b80821115610a37576000816000905550600101610a1f565b5090565b6000610a4e610a4984610f66565b610f41565b90508083825260208201905082856020860282011115610a7157610a70611272565b5b60005b85811015610aa15781610a878882610b9f565b845260208401935060208301925050600181019050610a74565b5050509392505050565b6000610abe610ab984610f92565b610f41565b905082815260208101848484011115610ada57610ad9611277565b5b610ae58482856110d9565b509392505050565b600082601f830112610b0257610b0161126d565b5b8135610b12848260208601610a3b565b91505092915050565b60008083601f840112610b3157610b3061126d565b5b8235905067ffffffffffffffff811115610b4e57610b4d611268565b5b602083019150836001820283011115610b6a57610b69611272565b5b9250929050565b600082601f830112610b8657610b8561126d565b5b8135610b96848260208601610aab565b91505092915050565b600081359050610bae816112ae565b92915050565b600081519050610bc3816112ae565b92915050565b60008060208385031215610be057610bdf611281565b5b600083013567ffffffffffffffff811115610bfe57610bfd61127c565b5b610c0a85828601610b1b565b92509250509250929050565b600060208284031215610c2c57610c2b611281565b5b600082013567ffffffffffffffff811115610c4a57610c4961127c565b5b610c5684828501610b71565b91505092915050565b600060208284031215610c7557610c74611281565b5b6000610c8384828501610b9f565b91505092915050565b600060208284031215610ca257610ca1611281565b5b6000610cb084828501610bb4565b91505092915050565b60008060408385031215610cd057610ccf611281565b5b6000610cde85828601610b9f565b925050602083013567ffffffffffffffff811115610cff57610cfe61127c565b5b610d0b85828601610aed565b9150509250929050565b610d1e8161101e565b82525050565b610d2d81611030565b82525050565b610d3c8161103c565b82525050565b6000610d4d82610fc3565b610d578185610fce565b9350610d678185602086016110e8565b610d7081611286565b840191505092915050565b610d84816110b5565b82525050565b6000610d97600083610fdf565b9150610da282611297565b600082019050919050565b610db681611059565b82525050565b610dc5816110c7565b82525050565b610dd481611087565b82525050565b610de381611091565b82525050565b610df2816110a1565b82525050565b6000610e0382610d8a565b9150819050919050565b6000602082019050610e226000830184610d15565b92915050565b6000604082019050610e3d6000830185610d15565b610e4a6020830184610d15565b9392505050565b6000604082019050610e666000830185610d24565b8181036020830152610e788184610d42565b90509392505050565b600060a082019050610e966000830188610d33565b610ea36020830187610de9565b610eb06040830186610dad565b610ebd6060830185610dda565b610eca6080830184610dbc565b9695505050505050565b6000602082019050610ee96000830184610d7b565b92915050565b6000602082019050610f046000830184610dcb565b92915050565b6000606082019050610f1f6000830186610dcb565b610f2c6020830185610dcb565b610f396040830184610dcb565b949350505050565b6000610f4b610f5c565b9050610f57828261111b565b919050565b6000604051905090565b600067ffffffffffffffff821115610f8157610f80611239565b5b602082029050602081019050919050565b600067ffffffffffffffff821115610fad57610fac611239565b5b610fb682611286565b9050602081019050919050565b600081519050919050565b600082825260208201905092915050565b600081905092915050565b6000610ff582611087565b915061100083611087565b9250828210156110135761101261117d565b5b828203905092915050565b600061102982611067565b9050919050565b60008115159050919050565b6000819050919050565b60008190506110548261129a565b919050565b600061ffff82169050919050565b600073ffffffffffffffffffffffffffffffffffffffff82169050919050565b6000819050919050565b600063ffffffff82169050919050565b600067ffffffffffffffff82169050919050565b60006110c082611046565b9050919050565b60006110d282611059565b9050919050565b82818337600083830152505050565b60005b838110156111065780820151818401526020810190506110eb565b83811115611115576000848401525b50505050565b61112482611286565b810181811067ffffffffffffffff8211171561114357611142611239565b5b80604052505050565b600061115782611087565b915061116283611087565b925082611172576111716111ac565b5b828206905092915050565b7f4e487b7100000000000000000000000000000000000000000000000000000000600052601160045260246000fd5b7f4e487b7100000000000000000000000000000000000000000000000000000000600052601260045260246000fd5b7f4e487b7100000000000000000000000000000000000000000000000000000000600052602160045260246000fd5b7f4e487b7100000000000000000000000000000000000000000000000000000000600052603260045260246000fd5b7f4e487b7100000000000000000000000000000000000000000000000000000000600052604160045260246000fd5b600080fd5b600080fd5b600080fd5b600080fd5b600080fd5b600080fd5b6000601f19601f8301169050919050565b50565b600281106112ab576112aa6111db565b5b50565b6112b781611087565b81146112c257600080fd5b5056fea264697066735822122025849ef25dfe41efadcc8072736dab23c927f7679c018528d25af9da14724bab64736f6c63430008070033",
          "opcodes": "PUSH2 0x160 PUSH1 0x40 MSTORE CALLVALUE DUP1 ISZERO PUSH3 0x12 JUMPI PUSH1 0x0 DUP1 REVERT JUMPDEST POP PUSH1 0x40 MLOAD PUSH3 0x16DB CODESIZE SUB DUP1 PUSH3 0x16DB DUP4 CODECOPY DUP2 DUP2 ADD PUSH1 0x40 MSTORE DUP2 ADD SWAP1 PUSH3 0x38 SWAP2 SWAP1 PUSH3 0x1AD JUMP JUMPDEST DUP6 DUP1 PUSH20 0xFFFFFFFFFFFFFFFFFFFFFFFFFFFFFFFFFFFFFFFF AND PUSH1 0x80 DUP2 PUSH20 0xFFFFFFFFFFFFFFFFFFFFFFFFFFFFFFFFFFFFFFFF AND PUSH1 0x60 SHL DUP2 MSTORE POP POP POP DUP5 PUSH1 0xA0 DUP2 DUP2 MSTORE POP POP DUP6 PUSH20 0xFFFFFFFFFFFFFFFFFFFFFFFFFFFFFFFFFFFFFFFF AND PUSH1 0xC0 DUP2 PUSH20 0xFFFFFFFFFFFFFFFFFFFFFFFFFFFFFFFFFFFFFFFF AND PUSH1 0x60 SHL DUP2 MSTORE POP POP DUP4 PUSH1 0xE0 DUP2 DUP2 MSTORE POP POP DUP3 PUSH8 0xFFFFFFFFFFFFFFFF AND PUSH2 0x100 DUP2 PUSH8 0xFFFFFFFFFFFFFFFF AND PUSH1 0xC0 SHL DUP2 MSTORE POP POP DUP2 PUSH4 0xFFFFFFFF AND PUSH2 0x120 DUP2 PUSH4 0xFFFFFFFF AND PUSH1 0xE0 SHL DUP2 MSTORE POP POP PUSH1 0x0 PUSH1 0x1 PUSH1 0x14 PUSH2 0x100 EXP DUP2 SLOAD DUP2 PUSH1 0xFF MUL NOT AND SWAP1 DUP4 PUSH1 0x1 DUP2 GT ISZERO PUSH3 0x119 JUMPI PUSH3 0x118 PUSH3 0x2B5 JUMP JUMPDEST JUMPDEST MUL OR SWAP1 SSTORE POP TIMESTAMP PUSH1 0x2 DUP2 SWAP1 SSTORE POP DUP1 PUSH2 0x140 DUP2 DUP2 MSTORE POP POP POP POP POP POP POP POP PUSH3 0x36B JUMP JUMPDEST PUSH1 0x0 DUP2 MLOAD SWAP1 POP PUSH3 0x14B DUP2 PUSH3 0x2E9 JUMP JUMPDEST SWAP3 SWAP2 POP POP JUMP JUMPDEST PUSH1 0x0 DUP2 MLOAD SWAP1 POP PUSH3 0x162 DUP2 PUSH3 0x303 JUMP JUMPDEST SWAP3 SWAP2 POP POP JUMP JUMPDEST PUSH1 0x0 DUP2 MLOAD SWAP1 POP PUSH3 0x179 DUP2 PUSH3 0x31D JUMP JUMPDEST SWAP3 SWAP2 POP POP JUMP JUMPDEST PUSH1 0x0 DUP2 MLOAD SWAP1 POP PUSH3 0x190 DUP2 PUSH3 0x337 JUMP JUMPDEST SWAP3 SWAP2 POP POP JUMP JUMPDEST PUSH1 0x0 DUP2 MLOAD SWAP1 POP PUSH3 0x1A7 DUP2 PUSH3 0x351 JUMP JUMPDEST SWAP3 SWAP2 POP POP JUMP JUMPDEST PUSH1 0x0 DUP1 PUSH1 0x0 DUP1 PUSH1 0x0 DUP1 PUSH1 0xC0 DUP8 DUP10 SUB SLT ISZERO PUSH3 0x1CD JUMPI PUSH3 0x1CC PUSH3 0x2E4 JUMP JUMPDEST JUMPDEST PUSH1 0x0 PUSH3 0x1DD DUP10 DUP3 DUP11 ADD PUSH3 0x13A JUMP JUMPDEST SWAP7 POP POP PUSH1 0x20 PUSH3 0x1F0 DUP10 DUP3 DUP11 ADD PUSH3 0x168 JUMP JUMPDEST SWAP6 POP POP PUSH1 0x40 PUSH3 0x203 DUP10 DUP3 DUP11 ADD PUSH3 0x151 JUMP JUMPDEST SWAP5 POP POP PUSH1 0x60 PUSH3 0x216 DUP10 DUP3 DUP11 ADD PUSH3 0x196 JUMP JUMPDEST SWAP4 POP POP PUSH1 0x80 PUSH3 0x229 DUP10 DUP3 DUP11 ADD PUSH3 0x17F JUMP JUMPDEST SWAP3 POP POP PUSH1 0xA0 PUSH3 0x23C DUP10 DUP3 DUP11 ADD PUSH3 0x168 JUMP JUMPDEST SWAP2 POP POP SWAP3 SWAP6 POP SWAP3 SWAP6 POP SWAP3 SWAP6 JUMP JUMPDEST PUSH1 0x0 PUSH3 0x256 DUP3 PUSH3 0x267 JUMP JUMPDEST SWAP1 POP SWAP2 SWAP1 POP JUMP JUMPDEST PUSH1 0x0 DUP2 SWAP1 POP SWAP2 SWAP1 POP JUMP JUMPDEST PUSH1 0x0 PUSH20 0xFFFFFFFFFFFFFFFFFFFFFFFFFFFFFFFFFFFFFFFF DUP3 AND SWAP1 POP SWAP2 SWAP1 POP JUMP JUMPDEST PUSH1 0x0 DUP2 SWAP1 POP SWAP2 SWAP1 POP JUMP JUMPDEST PUSH1 0x0 PUSH4 0xFFFFFFFF DUP3 AND SWAP1 POP SWAP2 SWAP1 POP JUMP JUMPDEST PUSH1 0x0 PUSH8 0xFFFFFFFFFFFFFFFF DUP3 AND SWAP1 POP SWAP2 SWAP1 POP JUMP JUMPDEST PUSH32 0x4E487B7100000000000000000000000000000000000000000000000000000000 PUSH1 0x0 MSTORE PUSH1 0x21 PUSH1 0x4 MSTORE PUSH1 0x24 PUSH1 0x0 REVERT JUMPDEST PUSH1 0x0 DUP1 REVERT JUMPDEST PUSH3 0x2F4 DUP2 PUSH3 0x249 JUMP JUMPDEST DUP2 EQ PUSH3 0x300 JUMPI PUSH1 0x0 DUP1 REVERT JUMPDEST POP JUMP JUMPDEST PUSH3 0x30E DUP2 PUSH3 0x25D JUMP JUMPDEST DUP2 EQ PUSH3 0x31A JUMPI PUSH1 0x0 DUP1 REVERT JUMPDEST POP JUMP JUMPDEST PUSH3 0x328 DUP2 PUSH3 0x287 JUMP JUMPDEST DUP2 EQ PUSH3 0x334 JUMPI PUSH1 0x0 DUP1 REVERT JUMPDEST POP JUMP JUMPDEST PUSH3 0x342 DUP2 PUSH3 0x291 JUMP JUMPDEST DUP2 EQ PUSH3 0x34E JUMPI PUSH1 0x0 DUP1 REVERT JUMPDEST POP JUMP JUMPDEST PUSH3 0x35C DUP2 PUSH3 0x2A1 JUMP JUMPDEST DUP2 EQ PUSH3 0x368 JUMPI PUSH1 0x0 DUP1 REVERT JUMPDEST POP JUMP JUMPDEST PUSH1 0x80 MLOAD PUSH1 0x60 SHR PUSH1 0xA0 MLOAD PUSH1 0xC0 MLOAD PUSH1 0x60 SHR PUSH1 0xE0 MLOAD PUSH2 0x100 MLOAD PUSH1 0xC0 SHR PUSH2 0x120 MLOAD PUSH1 0xE0 SHR PUSH2 0x140 MLOAD PUSH2 0x12FB PUSH3 0x3E0 PUSH1 0x0 CODECOPY PUSH1 0x0 PUSH2 0x6F9 ADD MSTORE PUSH1 0x0 PUSH2 0x5C4 ADD MSTORE PUSH1 0x0 PUSH2 0x5A1 ADD MSTORE PUSH1 0x0 PUSH2 0x580 ADD MSTORE PUSH1 0x0 PUSH2 0x544 ADD MSTORE PUSH1 0x0 DUP2 DUP2 PUSH2 0x1DC ADD MSTORE PUSH2 0x2D9 ADD MSTORE PUSH1 0x0 DUP2 DUP2 PUSH2 0x219 ADD MSTORE PUSH2 0x26D ADD MSTORE PUSH2 0x12FB PUSH1 0x0 RETURN INVALID PUSH1 0x80 PUSH1 0x40 MSTORE PUSH1 0x4 CALLDATASIZE LT PUSH2 0x7B JUMPI PUSH1 0x0 CALLDATALOAD PUSH1 0xE0 SHR DUP1 PUSH4 0x344CB569 GT PUSH2 0x4E JUMPI DUP1 PUSH4 0x344CB569 EQ PUSH2 0x109 JUMPI DUP1 PUSH4 0x4585E33B EQ PUSH2 0x146 JUMPI DUP1 PUSH4 0x473F1DDC EQ PUSH2 0x16F JUMPI DUP1 PUSH4 0x6E04FF0D EQ PUSH2 0x19A JUMPI PUSH2 0x7B JUMP JUMPDEST DUP1 PUSH4 0x9BC33A7 EQ PUSH2 0x80 JUMPI DUP1 PUSH4 0x115CBAF5 EQ PUSH2 0xAB JUMPI DUP1 PUSH4 0x1FE543E3 EQ PUSH2 0xD6 JUMPI DUP1 PUSH4 0x2CFCC539 EQ PUSH2 0xFF JUMPI JUMPDEST PUSH1 0x0 DUP1 REVERT JUMPDEST CALLVALUE DUP1 ISZERO PUSH2 0x8C JUMPI PUSH1 0x0 DUP1 REVERT JUMPDEST POP PUSH2 0x95 PUSH2 0x1D8 JUMP JUMPDEST PUSH1 0x40 MLOAD PUSH2 0xA2 SWAP2 SWAP1 PUSH2 0xEEF JUMP JUMPDEST PUSH1 0x40 MLOAD DUP1 SWAP2 SUB SWAP1 RETURN JUMPDEST CALLVALUE DUP1 ISZERO PUSH2 0xB7 JUMPI PUSH1 0x0 DUP1 REVERT JUMPDEST POP PUSH2 0xC0 PUSH2 0x200 JUMP JUMPDEST PUSH1 0x40 MLOAD PUSH2 0xCD SWAP2 SWAP1 PUSH2 0xED4 JUMP JUMPDEST PUSH1 0x40 MLOAD DUP1 SWAP2 SUB SWAP1 RETURN JUMPDEST CALLVALUE DUP1 ISZERO PUSH2 0xE2 JUMPI PUSH1 0x0 DUP1 REVERT JUMPDEST POP PUSH2 0xFD PUSH1 0x4 DUP1 CALLDATASIZE SUB DUP2 ADD SWAP1 PUSH2 0xF8 SWAP2 SWAP1 PUSH2 0xCB9 JUMP JUMPDEST PUSH2 0x217 JUMP JUMPDEST STOP JUMPDEST PUSH2 0x107 PUSH2 0x2D7 JUMP JUMPDEST STOP JUMPDEST CALLVALUE DUP1 ISZERO PUSH2 0x115 JUMPI PUSH1 0x0 DUP1 REVERT JUMPDEST POP PUSH2 0x130 PUSH1 0x4 DUP1 CALLDATASIZE SUB DUP2 ADD SWAP1 PUSH2 0x12B SWAP2 SWAP1 PUSH2 0xC5F JUMP JUMPDEST PUSH2 0x446 JUMP JUMPDEST PUSH1 0x40 MLOAD PUSH2 0x13D SWAP2 SWAP1 PUSH2 0xE0D JUMP JUMPDEST PUSH1 0x40 MLOAD DUP1 SWAP2 SUB SWAP1 RETURN JUMPDEST CALLVALUE DUP1 ISZERO PUSH2 0x152 JUMPI PUSH1 0x0 DUP1 REVERT JUMPDEST POP PUSH2 0x16D PUSH1 0x4 DUP1 CALLDATASIZE SUB DUP2 ADD SWAP1 PUSH2 0x168 SWAP2 SWAP1 PUSH2 0xBC9 JUMP JUMPDEST PUSH2 0x48D JUMP JUMPDEST STOP JUMPDEST CALLVALUE DUP1 ISZERO PUSH2 0x17B JUMPI PUSH1 0x0 DUP1 REVERT JUMPDEST POP PUSH2 0x184 PUSH2 0x68C JUMP JUMPDEST PUSH1 0x40 MLOAD PUSH2 0x191 SWAP2 SWAP1 PUSH2 0xE0D JUMP JUMPDEST PUSH1 0x40 MLOAD DUP1 SWAP2 SUB SWAP1 RETURN JUMPDEST CALLVALUE DUP1 ISZERO PUSH2 0x1A6 JUMPI PUSH1 0x0 DUP1 REVERT JUMPDEST POP PUSH2 0x1C1 PUSH1 0x4 DUP1 CALLDATASIZE SUB DUP2 ADD SWAP1 PUSH2 0x1BC SWAP2 SWAP1 PUSH2 0xC16 JUMP JUMPDEST PUSH2 0x6B6 JUMP JUMPDEST PUSH1 0x40 MLOAD PUSH2 0x1CF SWAP3 SWAP2 SWAP1 PUSH2 0xE51 JUMP JUMPDEST PUSH1 0x40 MLOAD DUP1 SWAP2 SUB SWAP1 RETURN JUMPDEST PUSH1 0x0 PUSH32 0x0 SWAP1 POP SWAP1 JUMP JUMPDEST PUSH1 0x0 PUSH1 0x1 PUSH1 0x14 SWAP1 SLOAD SWAP1 PUSH2 0x100 EXP SWAP1 DIV PUSH1 0xFF AND SWAP1 POP SWAP1 JUMP JUMPDEST PUSH32 0x0 PUSH20 0xFFFFFFFFFFFFFFFFFFFFFFFFFFFFFFFFFFFFFFFF AND CALLER PUSH20 0xFFFFFFFFFFFFFFFFFFFFFFFFFFFFFFFFFFFFFFFF AND EQ PUSH2 0x2C9 JUMPI CALLER PUSH32 0x0 PUSH1 0x40 MLOAD PUSH32 0x1CF993F400000000000000000000000000000000000000000000000000000000 DUP2 MSTORE PUSH1 0x4 ADD PUSH2 0x2C0 SWAP3 SWAP2 SWAP1 PUSH2 0xE28 JUMP JUMPDEST PUSH1 0x40 MLOAD DUP1 SWAP2 SUB SWAP1 REVERT JUMPDEST PUSH2 0x2D3 DUP3 DUP3 PUSH2 0x763 JUMP JUMPDEST POP POP JUMP JUMPDEST PUSH32 0x0 CALLVALUE LT ISZERO PUSH2 0x331 JUMPI PUSH1 0x40 MLOAD PUSH32 0xBD4E069500000000000000000000000000000000000000000000000000000000 DUP2 MSTORE PUSH1 0x4 ADD PUSH1 0x40 MLOAD DUP1 SWAP2 SUB SWAP1 REVERT JUMPDEST PUSH1 0x0 PUSH1 0x1 DUP2 GT ISZERO PUSH2 0x345 JUMPI PUSH2 0x344 PUSH2 0x11DB JUMP JUMPDEST JUMPDEST PUSH1 0x1 PUSH1 0x14 SWAP1 SLOAD SWAP1 PUSH2 0x100 EXP SWAP1 DIV PUSH1 0xFF AND PUSH1 0x1 DUP2 GT ISZERO PUSH2 0x367 JUMPI PUSH2 0x366 PUSH2 0x11DB JUMP JUMPDEST JUMPDEST EQ PUSH2 0x39E JUMPI PUSH1 0x40 MLOAD PUSH32 0x1425571C00000000000000000000000000000000000000000000000000000000 DUP2 MSTORE PUSH1 0x4 ADD PUSH1 0x40 MLOAD DUP1 SWAP2 SUB SWAP1 REVERT JUMPDEST PUSH1 0x0 CALLER SWAP1 DUP1 PUSH1 0x1 DUP2 SLOAD ADD DUP1 DUP3 SSTORE DUP1 SWAP2 POP POP PUSH1 0x1 SWAP1 SUB SWAP1 PUSH1 0x0 MSTORE PUSH1 0x20 PUSH1 0x0 KECCAK256 ADD PUSH1 0x0 SWAP1 SWAP2 SWAP1 SWAP2 SWAP1 SWAP2 PUSH2 0x100 EXP DUP2 SLOAD DUP2 PUSH20 0xFFFFFFFFFFFFFFFFFFFFFFFFFFFFFFFFFFFFFFFF MUL NOT AND SWAP1 DUP4 PUSH20 0xFFFFFFFFFFFFFFFFFFFFFFFFFFFFFFFFFFFFFFFF AND MUL OR SWAP1 SSTORE POP CALLER PUSH20 0xFFFFFFFFFFFFFFFFFFFFFFFFFFFFFFFFFFFFFFFF AND PUSH32 0x805E1D667BDDB8A95F0F09880CF94F403FB596CE79928D9F29B74203BA284D4 PUSH1 0x40 MLOAD PUSH1 0x40 MLOAD DUP1 SWAP2 SUB SWAP1 LOG2 JUMP JUMPDEST PUSH1 0x0 DUP1 DUP3 DUP2 SLOAD DUP2 LT PUSH2 0x45B JUMPI PUSH2 0x45A PUSH2 0x120A JUMP JUMPDEST JUMPDEST SWAP1 PUSH1 0x0 MSTORE PUSH1 0x20 PUSH1 0x0 KECCAK256 ADD PUSH1 0x0 SWAP1 SLOAD SWAP1 PUSH2 0x100 EXP SWAP1 DIV PUSH20 0xFFFFFFFFFFFFFFFFFFFFFFFFFFFFFFFFFFFFFFFF AND SWAP1 POP SWAP2 SWAP1 POP JUMP JUMPDEST PUSH1 0x0 PUSH2 0x4A7 PUSH1 0x40 MLOAD DUP1 PUSH1 0x20 ADD PUSH1 0x40 MSTORE DUP1 PUSH1 0x0 DUP2 MSTORE POP PUSH2 0x6B6 JUMP JUMPDEST POP SWAP1 POP DUP1 PUSH2 0x516 JUMPI SELFBALANCE PUSH1 0x0 DUP1 SLOAD SWAP1 POP PUSH1 0x1 PUSH1 0x14 SWAP1 SLOAD SWAP1 PUSH2 0x100 EXP SWAP1 DIV PUSH1 0xFF AND PUSH1 0x1 DUP2 GT ISZERO PUSH2 0x4D8 JUMPI PUSH2 0x4D7 PUSH2 0x11DB JUMP JUMPDEST JUMPDEST PUSH1 0x40 MLOAD PUSH32 0x584327AA00000000000000000000000000000000000000000000000000000000 DUP2 MSTORE PUSH1 0x4 ADD PUSH2 0x50D SWAP4 SWAP3 SWAP2 SWAP1 PUSH2 0xF0A JUMP JUMPDEST PUSH1 0x40 MLOAD DUP1 SWAP2 SUB SWAP1 REVERT JUMPDEST PUSH1 0x1 DUP1 PUSH1 0x14 PUSH2 0x100 EXP DUP2 SLOAD DUP2 PUSH1 0xFF MUL NOT AND SWAP1 DUP4 PUSH1 0x1 DUP2 GT ISZERO PUSH2 0x53B JUMPI PUSH2 0x53A PUSH2 0x11DB JUMP JUMPDEST JUMPDEST MUL OR SWAP1 SSTORE POP PUSH1 0x0 PUSH32 0x0 PUSH20 0xFFFFFFFFFFFFFFFFFFFFFFFFFFFFFFFFFFFFFFFF AND PUSH4 0x5D3B1D30 PUSH32 0x0 PUSH32 0x0 PUSH1 0x3 PUSH32 0x0 PUSH1 0x1 PUSH1 0x40 MLOAD DUP7 PUSH4 0xFFFFFFFF AND PUSH1 0xE0 SHL DUP2 MSTORE PUSH1 0x4 ADD PUSH2 0x605 SWAP6 SWAP5 SWAP4 SWAP3 SWAP2 SWAP1 PUSH2 0xE81 JUMP JUMPDEST PUSH1 0x20 PUSH1 0x40 MLOAD DUP1 DUP4 SUB DUP2 PUSH1 0x0 DUP8 DUP1 EXTCODESIZE ISZERO DUP1 ISZERO PUSH2 0x61F JUMPI PUSH1 0x0 DUP1 REVERT JUMPDEST POP GAS CALL ISZERO DUP1 ISZERO PUSH2 0x633 JUMPI RETURNDATASIZE PUSH1 0x0 DUP1 RETURNDATACOPY RETURNDATASIZE PUSH1 0x0 REVERT JUMPDEST POP POP POP POP PUSH1 0x40 MLOAD RETURNDATASIZE PUSH1 0x1F NOT PUSH1 0x1F DUP3 ADD AND DUP3 ADD DUP1 PUSH1 0x40 MSTORE POP DUP2 ADD SWAP1 PUSH2 0x657 SWAP2 SWAP1 PUSH2 0xC8C JUMP JUMPDEST SWAP1 POP DUP1 PUSH32 0xCD6E45C8998311CAB7E9D4385596CAC867E20A0587194B954FA3A731C93CE78B PUSH1 0x40 MLOAD PUSH1 0x40 MLOAD DUP1 SWAP2 SUB SWAP1 LOG2 POP POP POP POP JUMP JUMPDEST PUSH1 0x0 PUSH1 0x1 PUSH1 0x0 SWAP1 SLOAD SWAP1 PUSH2 0x100 EXP SWAP1 DIV PUSH20 0xFFFFFFFFFFFFFFFFFFFFFFFFFFFFFFFFFFFFFFFF AND SWAP1 POP SWAP1 JUMP JUMPDEST PUSH1 0x0 PUSH1 0x60 PUSH1 0x0 PUSH1 0x1 PUSH1 0x14 SWAP1 SLOAD SWAP1 PUSH2 0x100 EXP SWAP1 DIV PUSH1 0xFF AND PUSH1 0x1 DUP2 GT ISZERO PUSH2 0x6DE JUMPI PUSH2 0x6DD PUSH2 0x11DB JUMP JUMPDEST JUMPDEST PUSH1 0x0 PUSH1 0x1 DUP2 GT ISZERO PUSH2 0x6F2 JUMPI PUSH2 0x6F1 PUSH2 0x11DB JUMP JUMPDEST JUMPDEST EQ SWAP1 POP PUSH1 0x0 PUSH32 0x0 PUSH1 0x2 SLOAD TIMESTAMP PUSH2 0x726 SWAP2 SWAP1 PUSH2 0xFEA JUMP JUMPDEST GT SWAP1 POP PUSH1 0x0 DUP1 PUSH1 0x0 DUP1 SLOAD SWAP1 POP GT SWAP1 POP PUSH1 0x0 DUP1 SELFBALANCE GT SWAP1 POP DUP4 DUP1 ISZERO PUSH2 0x746 JUMPI POP DUP3 JUMPDEST DUP1 ISZERO PUSH2 0x74F JUMPI POP DUP2 JUMPDEST DUP1 ISZERO PUSH2 0x758 JUMPI POP DUP1 JUMPDEST SWAP6 POP POP POP POP POP SWAP2 POP SWAP2 JUMP JUMPDEST PUSH1 0x0 DUP1 DUP1 SLOAD SWAP1 POP DUP3 PUSH1 0x0 DUP2 MLOAD DUP2 LT PUSH2 0x77E JUMPI PUSH2 0x77D PUSH2 0x120A JUMP JUMPDEST JUMPDEST PUSH1 0x20 MUL PUSH1 0x20 ADD ADD MLOAD PUSH2 0x790 SWAP2 SWAP1 PUSH2 0x114C JUMP JUMPDEST SWAP1 POP PUSH1 0x0 DUP1 DUP3 DUP2 SLOAD DUP2 LT PUSH2 0x7A7 JUMPI PUSH2 0x7A6 PUSH2 0x120A JUMP JUMPDEST JUMPDEST SWAP1 PUSH1 0x0 MSTORE PUSH1 0x20 PUSH1 0x0 KECCAK256 ADD PUSH1 0x0 SWAP1 SLOAD SWAP1 PUSH2 0x100 EXP SWAP1 DIV PUSH20 0xFFFFFFFFFFFFFFFFFFFFFFFFFFFFFFFFFFFFFFFF AND SWAP1 POP DUP1 PUSH1 0x1 PUSH1 0x0 PUSH2 0x100 EXP DUP2 SLOAD DUP2 PUSH20 0xFFFFFFFFFFFFFFFFFFFFFFFFFFFFFFFFFFFFFFFF MUL NOT AND SWAP1 DUP4 PUSH20 0xFFFFFFFFFFFFFFFFFFFFFFFFFFFFFFFFFFFFFFFF AND MUL OR SWAP1 SSTORE POP PUSH1 0x0 PUSH1 0x1 PUSH1 0x14 PUSH2 0x100 EXP DUP2 SLOAD DUP2 PUSH1 0xFF MUL NOT AND SWAP1 DUP4 PUSH1 0x1 DUP2 GT ISZERO PUSH2 0x83B JUMPI PUSH2 0x83A PUSH2 0x11DB JUMP JUMPDEST JUMPDEST MUL OR SWAP1 SSTORE POP PUSH1 0x0 PUSH8 0xFFFFFFFFFFFFFFFF DUP2 GT ISZERO PUSH2 0x85B JUMPI PUSH2 0x85A PUSH2 0x1239 JUMP JUMPDEST JUMPDEST PUSH1 0x40 MLOAD SWAP1 DUP1 DUP3 MSTORE DUP1 PUSH1 0x20 MUL PUSH1 0x20 ADD DUP3 ADD PUSH1 0x40 MSTORE DUP1 ISZERO PUSH2 0x889 JUMPI DUP2 PUSH1 0x20 ADD PUSH1 0x20 DUP3 MUL DUP1 CALLDATASIZE DUP4 CALLDATACOPY DUP1 DUP3 ADD SWAP2 POP POP SWAP1 POP JUMPDEST POP PUSH1 0x0 SWAP1 DUP1 MLOAD SWAP1 PUSH1 0x20 ADD SWAP1 PUSH2 0x89F SWAP3 SWAP2 SWAP1 PUSH2 0x994 JUMP JUMPDEST POP TIMESTAMP PUSH1 0x2 DUP2 SWAP1 SSTORE POP PUSH1 0x0 DUP2 PUSH20 0xFFFFFFFFFFFFFFFFFFFFFFFFFFFFFFFFFFFFFFFF AND SELFBALANCE PUSH1 0x40 MLOAD PUSH2 0x8CD SWAP1 PUSH2 0xDF8 JUMP JUMPDEST PUSH1 0x0 PUSH1 0x40 MLOAD DUP1 DUP4 SUB DUP2 DUP6 DUP8 GAS CALL SWAP3 POP POP POP RETURNDATASIZE DUP1 PUSH1 0x0 DUP2 EQ PUSH2 0x90A JUMPI PUSH1 0x40 MLOAD SWAP2 POP PUSH1 0x1F NOT PUSH1 0x3F RETURNDATASIZE ADD AND DUP3 ADD PUSH1 0x40 MSTORE RETURNDATASIZE DUP3 MSTORE RETURNDATASIZE PUSH1 0x0 PUSH1 0x20 DUP5 ADD RETURNDATACOPY PUSH2 0x90F JUMP JUMPDEST PUSH1 0x60 SWAP2 POP JUMPDEST POP POP SWAP1 POP DUP1 PUSH2 0x94A JUMPI PUSH1 0x40 MLOAD PUSH32 0xA1D04B3900000000000000000000000000000000000000000000000000000000 DUP2 MSTORE PUSH1 0x4 ADD PUSH1 0x40 MLOAD DUP1 SWAP2 SUB SWAP1 REVERT JUMPDEST DUP2 PUSH20 0xFFFFFFFFFFFFFFFFFFFFFFFFFFFFFFFFFFFFFFFF AND PUSH32 0x5B690EC4A06FE979403046EAEEA5B3CE38524683C3001F662C8B5A829632F7DF PUSH1 0x40 MLOAD PUSH1 0x40 MLOAD DUP1 SWAP2 SUB SWAP1 LOG2 POP POP POP POP POP JUMP JUMPDEST DUP3 DUP1 SLOAD DUP3 DUP3 SSTORE SWAP1 PUSH1 0x0 MSTORE PUSH1 0x20 PUSH1 0x0 KECCAK256 SWAP1 DUP2 ADD SWAP3 DUP3 ISZERO PUSH2 0xA0D JUMPI SWAP2 PUSH1 0x20 MUL DUP3 ADD JUMPDEST DUP3 DUP2 GT ISZERO PUSH2 0xA0C JUMPI DUP3 MLOAD DUP3 PUSH1 0x0 PUSH2 0x100 EXP DUP2 SLOAD DUP2 PUSH20 0xFFFFFFFFFFFFFFFFFFFFFFFFFFFFFFFFFFFFFFFF MUL NOT AND SWAP1 DUP4 PUSH20 0xFFFFFFFFFFFFFFFFFFFFFFFFFFFFFFFFFFFFFFFF AND MUL OR SWAP1 SSTORE POP SWAP2 PUSH1 0x20 ADD SWAP2 SWAP1 PUSH1 0x1 ADD SWAP1 PUSH2 0x9B4 JUMP JUMPDEST JUMPDEST POP SWAP1 POP PUSH2 0xA1A SWAP2 SWAP1 PUSH2 0xA1E JUMP JUMPDEST POP SWAP1 JUMP JUMPDEST JUMPDEST DUP1 DUP3 GT ISZERO PUSH2 0xA37 JUMPI PUSH1 0x0 DUP2 PUSH1 0x0 SWAP1 SSTORE POP PUSH1 0x1 ADD PUSH2 0xA1F JUMP JUMPDEST POP SWAP1 JUMP JUMPDEST PUSH1 0x0 PUSH2 0xA4E PUSH2 0xA49 DUP5 PUSH2 0xF66 JUMP JUMPDEST PUSH2 0xF41 JUMP JUMPDEST SWAP1 POP DUP1 DUP4 DUP3 MSTORE PUSH1 0x20 DUP3 ADD SWAP1 POP DUP3 DUP6 PUSH1 0x20 DUP7 MUL DUP3 ADD GT ISZERO PUSH2 0xA71 JUMPI PUSH2 0xA70 PUSH2 0x1272 JUMP JUMPDEST JUMPDEST PUSH1 0x0 JUMPDEST DUP6 DUP2 LT ISZERO PUSH2 0xAA1 JUMPI DUP2 PUSH2 0xA87 DUP9 DUP3 PUSH2 0xB9F JUMP JUMPDEST DUP5 MSTORE PUSH1 0x20 DUP5 ADD SWAP4 POP PUSH1 0x20 DUP4 ADD SWAP3 POP POP PUSH1 0x1 DUP2 ADD SWAP1 POP PUSH2 0xA74 JUMP JUMPDEST POP POP POP SWAP4 SWAP3 POP POP POP JUMP JUMPDEST PUSH1 0x0 PUSH2 0xABE PUSH2 0xAB9 DUP5 PUSH2 0xF92 JUMP JUMPDEST PUSH2 0xF41 JUMP JUMPDEST SWAP1 POP DUP3 DUP2 MSTORE PUSH1 0x20 DUP2 ADD DUP5 DUP5 DUP5 ADD GT ISZERO PUSH2 0xADA JUMPI PUSH2 0xAD9 PUSH2 0x1277 JUMP JUMPDEST JUMPDEST PUSH2 0xAE5 DUP5 DUP3 DUP6 PUSH2 0x10D9 JUMP JUMPDEST POP SWAP4 SWAP3 POP POP POP JUMP JUMPDEST PUSH1 0x0 DUP3 PUSH1 0x1F DUP4 ADD SLT PUSH2 0xB02 JUMPI PUSH2 0xB01 PUSH2 0x126D JUMP JUMPDEST JUMPDEST DUP2 CALLDATALOAD PUSH2 0xB12 DUP5 DUP3 PUSH1 0x20 DUP7 ADD PUSH2 0xA3B JUMP JUMPDEST SWAP2 POP POP SWAP3 SWAP2 POP POP JUMP JUMPDEST PUSH1 0x0 DUP1 DUP4 PUSH1 0x1F DUP5 ADD SLT PUSH2 0xB31 JUMPI PUSH2 0xB30 PUSH2 0x126D JUMP JUMPDEST JUMPDEST DUP3 CALLDATALOAD SWAP1 POP PUSH8 0xFFFFFFFFFFFFFFFF DUP2 GT ISZERO PUSH2 0xB4E JUMPI PUSH2 0xB4D PUSH2 0x1268 JUMP JUMPDEST JUMPDEST PUSH1 0x20 DUP4 ADD SWAP2 POP DUP4 PUSH1 0x1 DUP3 MUL DUP4 ADD GT ISZERO PUSH2 0xB6A JUMPI PUSH2 0xB69 PUSH2 0x1272 JUMP JUMPDEST JUMPDEST SWAP3 POP SWAP3 SWAP1 POP JUMP JUMPDEST PUSH1 0x0 DUP3 PUSH1 0x1F DUP4 ADD SLT PUSH2 0xB86 JUMPI PUSH2 0xB85 PUSH2 0x126D JUMP JUMPDEST JUMPDEST DUP2 CALLDATALOAD PUSH2 0xB96 DUP5 DUP3 PUSH1 0x20 DUP7 ADD PUSH2 0xAAB JUMP JUMPDEST SWAP2 POP POP SWAP3 SWAP2 POP POP JUMP JUMPDEST PUSH1 0x0 DUP2 CALLDATALOAD SWAP1 POP PUSH2 0xBAE DUP2 PUSH2 0x12AE JUMP JUMPDEST SWAP3 SWAP2 POP POP JUMP JUMPDEST PUSH1 0x0 DUP2 MLOAD SWAP1 POP PUSH2 0xBC3 DUP2 PUSH2 0x12AE JUMP JUMPDEST SWAP3 SWAP2 POP POP JUMP JUMPDEST PUSH1 0x0 DUP1 PUSH1 0x20 DUP4 DUP6 SUB SLT ISZERO PUSH2 0xBE0 JUMPI PUSH2 0xBDF PUSH2 0x1281 JUMP JUMPDEST JUMPDEST PUSH1 0x0 DUP4 ADD CALLDATALOAD PUSH8 0xFFFFFFFFFFFFFFFF DUP2 GT ISZERO PUSH2 0xBFE JUMPI PUSH2 0xBFD PUSH2 0x127C JUMP JUMPDEST JUMPDEST PUSH2 0xC0A DUP6 DUP3 DUP7 ADD PUSH2 0xB1B JUMP JUMPDEST SWAP3 POP SWAP3 POP POP SWAP3 POP SWAP3 SWAP1 POP JUMP JUMPDEST PUSH1 0x0 PUSH1 0x20 DUP3 DUP5 SUB SLT ISZERO PUSH2 0xC2C JUMPI PUSH2 0xC2B PUSH2 0x1281 JUMP JUMPDEST JUMPDEST PUSH1 0x0 DUP3 ADD CALLDATALOAD PUSH8 0xFFFFFFFFFFFFFFFF DUP2 GT ISZERO PUSH2 0xC4A JUMPI PUSH2 0xC49 PUSH2 0x127C JUMP JUMPDEST JUMPDEST PUSH2 0xC56 DUP5 DUP3 DUP6 ADD PUSH2 0xB71 JUMP JUMPDEST SWAP2 POP POP SWAP3 SWAP2 POP POP JUMP JUMPDEST PUSH1 0x0 PUSH1 0x20 DUP3 DUP5 SUB SLT ISZERO PUSH2 0xC75 JUMPI PUSH2 0xC74 PUSH2 0x1281 JUMP JUMPDEST JUMPDEST PUSH1 0x0 PUSH2 0xC83 DUP5 DUP3 DUP6 ADD PUSH2 0xB9F JUMP JUMPDEST SWAP2 POP POP SWAP3 SWAP2 POP POP JUMP JUMPDEST PUSH1 0x0 PUSH1 0x20 DUP3 DUP5 SUB SLT ISZERO PUSH2 0xCA2 JUMPI PUSH2 0xCA1 PUSH2 0x1281 JUMP JUMPDEST JUMPDEST PUSH1 0x0 PUSH2 0xCB0 DUP5 DUP3 DUP6 ADD PUSH2 0xBB4 JUMP JUMPDEST SWAP2 POP POP SWAP3 SWAP2 POP POP JUMP JUMPDEST PUSH1 0x0 DUP1 PUSH1 0x40 DUP4 DUP6 SUB SLT ISZERO PUSH2 0xCD0 JUMPI PUSH2 0xCCF PUSH2 0x1281 JUMP JUMPDEST JUMPDEST PUSH1 0x0 PUSH2 0xCDE DUP6 DUP3 DUP7 ADD PUSH2 0xB9F JUMP JUMPDEST SWAP3 POP POP PUSH1 0x20 DUP4 ADD CALLDATALOAD PUSH8 0xFFFFFFFFFFFFFFFF DUP2 GT ISZERO PUSH2 0xCFF JUMPI PUSH2 0xCFE PUSH2 0x127C JUMP JUMPDEST JUMPDEST PUSH2 0xD0B DUP6 DUP3 DUP7 ADD PUSH2 0xAED JUMP JUMPDEST SWAP2 POP POP SWAP3 POP SWAP3 SWAP1 POP JUMP JUMPDEST PUSH2 0xD1E DUP2 PUSH2 0x101E JUMP JUMPDEST DUP3 MSTORE POP POP JUMP JUMPDEST PUSH2 0xD2D DUP2 PUSH2 0x1030 JUMP JUMPDEST DUP3 MSTORE POP POP JUMP JUMPDEST PUSH2 0xD3C DUP2 PUSH2 0x103C JUMP JUMPDEST DUP3 MSTORE POP POP JUMP JUMPDEST PUSH1 0x0 PUSH2 0xD4D DUP3 PUSH2 0xFC3 JUMP JUMPDEST PUSH2 0xD57 DUP2 DUP6 PUSH2 0xFCE JUMP JUMPDEST SWAP4 POP PUSH2 0xD67 DUP2 DUP6 PUSH1 0x20 DUP7 ADD PUSH2 0x10E8 JUMP JUMPDEST PUSH2 0xD70 DUP2 PUSH2 0x1286 JUMP JUMPDEST DUP5 ADD SWAP2 POP POP SWAP3 SWAP2 POP POP JUMP JUMPDEST PUSH2 0xD84 DUP2 PUSH2 0x10B5 JUMP JUMPDEST DUP3 MSTORE POP POP JUMP JUMPDEST PUSH1 0x0 PUSH2 0xD97 PUSH1 0x0 DUP4 PUSH2 0xFDF JUMP JUMPDEST SWAP2 POP PUSH2 0xDA2 DUP3 PUSH2 0x1297 JUMP JUMPDEST PUSH1 0x0 DUP3 ADD SWAP1 POP SWAP2 SWAP1 POP JUMP JUMPDEST PUSH2 0xDB6 DUP2 PUSH2 0x1059 JUMP JUMPDEST DUP3 MSTORE POP POP JUMP JUMPDEST PUSH2 0xDC5 DUP2 PUSH2 0x10C7 JUMP JUMPDEST DUP3 MSTORE POP POP JUMP JUMPDEST PUSH2 0xDD4 DUP2 PUSH2 0x1087 JUMP JUMPDEST DUP3 MSTORE POP POP JUMP JUMPDEST PUSH2 0xDE3 DUP2 PUSH2 0x1091 JUMP JUMPDEST DUP3 MSTORE POP POP JUMP JUMPDEST PUSH2 0xDF2 DUP2 PUSH2 0x10A1 JUMP JUMPDEST DUP3 MSTORE POP POP JUMP JUMPDEST PUSH1 0x0 PUSH2 0xE03 DUP3 PUSH2 0xD8A JUMP JUMPDEST SWAP2 POP DUP2 SWAP1 POP SWAP2 SWAP1 POP JUMP JUMPDEST PUSH1 0x0 PUSH1 0x20 DUP3 ADD SWAP1 POP PUSH2 0xE22 PUSH1 0x0 DUP4 ADD DUP5 PUSH2 0xD15 JUMP JUMPDEST SWAP3 SWAP2 POP POP JUMP JUMPDEST PUSH1 0x0 PUSH1 0x40 DUP3 ADD SWAP1 POP PUSH2 0xE3D PUSH1 0x0 DUP4 ADD DUP6 PUSH2 0xD15 JUMP JUMPDEST PUSH2 0xE4A PUSH1 0x20 DUP4 ADD DUP5 PUSH2 0xD15 JUMP JUMPDEST SWAP4 SWAP3 POP POP POP JUMP JUMPDEST PUSH1 0x0 PUSH1 0x40 DUP3 ADD SWAP1 POP PUSH2 0xE66 PUSH1 0x0 DUP4 ADD DUP6 PUSH2 0xD24 JUMP JUMPDEST DUP2 DUP2 SUB PUSH1 0x20 DUP4 ADD MSTORE PUSH2 0xE78 DUP2 DUP5 PUSH2 0xD42 JUMP JUMPDEST SWAP1 POP SWAP4 SWAP3 POP POP POP JUMP JUMPDEST PUSH1 0x0 PUSH1 0xA0 DUP3 ADD SWAP1 POP PUSH2 0xE96 PUSH1 0x0 DUP4 ADD DUP9 PUSH2 0xD33 JUMP JUMPDEST PUSH2 0xEA3 PUSH1 0x20 DUP4 ADD DUP8 PUSH2 0xDE9 JUMP JUMPDEST PUSH2 0xEB0 PUSH1 0x40 DUP4 ADD DUP7 PUSH2 0xDAD JUMP JUMPDEST PUSH2 0xEBD PUSH1 0x60 DUP4 ADD DUP6 PUSH2 0xDDA JUMP JUMPDEST PUSH2 0xECA PUSH1 0x80 DUP4 ADD DUP5 PUSH2 0xDBC JUMP JUMPDEST SWAP7 SWAP6 POP POP POP POP POP POP JUMP JUMPDEST PUSH1 0x0 PUSH1 0x20 DUP3 ADD SWAP1 POP PUSH2 0xEE9 PUSH1 0x0 DUP4 ADD DUP5 PUSH2 0xD7B JUMP JUMPDEST SWAP3 SWAP2 POP POP JUMP JUMPDEST PUSH1 0x0 PUSH1 0x20 DUP3 ADD SWAP1 POP PUSH2 0xF04 PUSH1 0x0 DUP4 ADD DUP5 PUSH2 0xDCB JUMP JUMPDEST SWAP3 SWAP2 POP POP JUMP JUMPDEST PUSH1 0x0 PUSH1 0x60 DUP3 ADD SWAP1 POP PUSH2 0xF1F PUSH1 0x0 DUP4 ADD DUP7 PUSH2 0xDCB JUMP JUMPDEST PUSH2 0xF2C PUSH1 0x20 DUP4 ADD DUP6 PUSH2 0xDCB JUMP JUMPDEST PUSH2 0xF39 PUSH1 0x40 DUP4 ADD DUP5 PUSH2 0xDCB JUMP JUMPDEST SWAP5 SWAP4 POP POP POP POP JUMP JUMPDEST PUSH1 0x0 PUSH2 0xF4B PUSH2 0xF5C JUMP JUMPDEST SWAP1 POP PUSH2 0xF57 DUP3 DUP3 PUSH2 0x111B JUMP JUMPDEST SWAP2 SWAP1 POP JUMP JUMPDEST PUSH1 0x0 PUSH1 0x40 MLOAD SWAP1 POP SWAP1 JUMP JUMPDEST PUSH1 0x0 PUSH8 0xFFFFFFFFFFFFFFFF DUP3 GT ISZERO PUSH2 0xF81 JUMPI PUSH2 0xF80 PUSH2 0x1239 JUMP JUMPDEST JUMPDEST PUSH1 0x20 DUP3 MUL SWAP1 POP PUSH1 0x20 DUP2 ADD SWAP1 POP SWAP2 SWAP1 POP JUMP JUMPDEST PUSH1 0x0 PUSH8 0xFFFFFFFFFFFFFFFF DUP3 GT ISZERO PUSH2 0xFAD JUMPI PUSH2 0xFAC PUSH2 0x1239 JUMP JUMPDEST JUMPDEST PUSH2 0xFB6 DUP3 PUSH2 0x1286 JUMP JUMPDEST SWAP1 POP PUSH1 0x20 DUP2 ADD SWAP1 POP SWAP2 SWAP1 POP JUMP JUMPDEST PUSH1 0x0 DUP2 MLOAD SWAP1 POP SWAP2 SWAP1 POP JUMP JUMPDEST PUSH1 0x0 DUP3 DUP3 MSTORE PUSH1 0x20 DUP3 ADD SWAP1 POP SWAP3 SWAP2 POP POP JUMP JUMPDEST PUSH1 0x0 DUP2 SWAP1 POP SWAP3 SWAP2 POP POP JUMP JUMPDEST PUSH1 0x0 PUSH2 0xFF5 DUP3 PUSH2 0x1087 JUMP JUMPDEST SWAP2 POP PUSH2 0x1000 DUP4 PUSH2 0x1087 JUMP JUMPDEST SWAP3 POP DUP3 DUP3 LT ISZERO PUSH2 0x1013 JUMPI PUSH2 0x1012 PUSH2 0x117D JUMP JUMPDEST JUMPDEST DUP3 DUP3 SUB SWAP1 POP SWAP3 SWAP2 POP POP JUMP JUMPDEST PUSH1 0x0 PUSH2 0x1029 DUP3 PUSH2 0x1067 JUMP JUMPDEST SWAP1 POP SWAP2 SWAP1 POP JUMP JUMPDEST PUSH1 0x0 DUP2 ISZERO ISZERO SWAP1 POP SWAP2 SWAP1 POP JUMP JUMPDEST PUSH1 0x0 DUP2 SWAP1 POP SWAP2 SWAP1 POP JUMP JUMPDEST PUSH1 0x0 DUP2 SWAP1 POP PUSH2 0x1054 DUP3 PUSH2 0x129A JUMP JUMPDEST SWAP2 SWAP1 POP JUMP JUMPDEST PUSH1 0x0 PUSH2 0xFFFF DUP3 AND SWAP1 POP SWAP2 SWAP1 POP JUMP JUMPDEST PUSH1 0x0 PUSH20 0xFFFFFFFFFFFFFFFFFFFFFFFFFFFFFFFFFFFFFFFF DUP3 AND SWAP1 POP SWAP2 SWAP1 POP JUMP JUMPDEST PUSH1 0x0 DUP2 SWAP1 POP SWAP2 SWAP1 POP JUMP JUMPDEST PUSH1 0x0 PUSH4 0xFFFFFFFF DUP3 AND SWAP1 POP SWAP2 SWAP1 POP JUMP JUMPDEST PUSH1 0x0 PUSH8 0xFFFFFFFFFFFFFFFF DUP3 AND SWAP1 POP SWAP2 SWAP1 POP JUMP JUMPDEST PUSH1 0x0 PUSH2 0x10C0 DUP3 PUSH2 0x1046 JUMP JUMPDEST SWAP1 POP SWAP2 SWAP1 POP JUMP JUMPDEST PUSH1 0x0 PUSH2 0x10D2 DUP3 PUSH2 0x1059 JUMP JUMPDEST SWAP1 POP SWAP2 SWAP1 POP JUMP JUMPDEST DUP3 DUP2 DUP4 CALLDATACOPY PUSH1 0x0 DUP4 DUP4 ADD MSTORE POP POP POP JUMP JUMPDEST PUSH1 0x0 JUMPDEST DUP4 DUP2 LT ISZERO PUSH2 0x1106 JUMPI DUP1 DUP3 ADD MLOAD DUP2 DUP5 ADD MSTORE PUSH1 0x20 DUP2 ADD SWAP1 POP PUSH2 0x10EB JUMP JUMPDEST DUP4 DUP2 GT ISZERO PUSH2 0x1115 JUMPI PUSH1 0x0 DUP5 DUP5 ADD MSTORE JUMPDEST POP POP POP POP JUMP JUMPDEST PUSH2 0x1124 DUP3 PUSH2 0x1286 JUMP JUMPDEST DUP2 ADD DUP2 DUP2 LT PUSH8 0xFFFFFFFFFFFFFFFF DUP3 GT OR ISZERO PUSH2 0x1143 JUMPI PUSH2 0x1142 PUSH2 0x1239 JUMP JUMPDEST JUMPDEST DUP1 PUSH1 0x40 MSTORE POP POP POP JUMP JUMPDEST PUSH1 0x0 PUSH2 0x1157 DUP3 PUSH2 0x1087 JUMP JUMPDEST SWAP2 POP PUSH2 0x1162 DUP4 PUSH2 0x1087 JUMP JUMPDEST SWAP3 POP DUP3 PUSH2 0x1172 JUMPI PUSH2 0x1171 PUSH2 0x11AC JUMP JUMPDEST JUMPDEST DUP3 DUP3 MOD SWAP1 POP SWAP3 SWAP2 POP POP JUMP JUMPDEST PUSH32 0x4E487B7100000000000000000000000000000000000000000000000000000000 PUSH1 0x0 MSTORE PUSH1 0x11 PUSH1 0x4 MSTORE PUSH1 0x24 PUSH1 0x0 REVERT JUMPDEST PUSH32 0x4E487B7100000000000000000000000000000000000000000000000000000000 PUSH1 0x0 MSTORE PUSH1 0x12 PUSH1 0x4 MSTORE PUSH1 0x24 PUSH1 0x0 REVERT JUMPDEST PUSH32 0x4E487B7100000000000000000000000000000000000000000000000000000000 PUSH1 0x0 MSTORE PUSH1 0x21 PUSH1 0x4 MSTORE PUSH1 0x24 PUSH1 0x0 REVERT JUMPDEST PUSH32 0x4E487B7100000000000000000000000000000000000000000000000000000000 PUSH1 0x0 MSTORE PUSH1 0x32 PUSH1 0x4 MSTORE PUSH1 0x24 PUSH1 0x0 REVERT JUMPDEST PUSH32 0x4E487B7100000000000000000000000000000000000000000000000000000000 PUSH1 0x0 MSTORE PUSH1 0x41 PUSH1 0x4 MSTORE PUSH1 0x24 PUSH1 0x0 REVERT JUMPDEST PUSH1 0x0 DUP1 REVERT JUMPDEST PUSH1 0x0 DUP1 REVERT JUMPDEST PUSH1 0x0 DUP1 REVERT JUMPDEST PUSH1 0x0 DUP1 REVERT JUMPDEST PUSH1 0x0 DUP1 REVERT JUMPDEST PUSH1 0x0 DUP1 REVERT JUMPDEST PUSH1 0x0 PUSH1 0x1F NOT PUSH1 0x1F DUP4 ADD AND SWAP1 POP SWAP2 SWAP1 POP JUMP JUMPDEST POP JUMP JUMPDEST PUSH1 0x2 DUP2 LT PUSH2 0x12AB JUMPI PUSH2 0x12AA PUSH2 0x11DB JUMP JUMPDEST JUMPDEST POP JUMP JUMPDEST PUSH2 0x12B7 DUP2 PUSH2 0x1087 JUMP JUMPDEST DUP2 EQ PUSH2 0x12C2 JUMPI PUSH1 0x0 DUP1 REVERT JUMPDEST POP JUMP INVALID LOG2 PUSH5 0x6970667358 0x22 SLT KECCAK256 0x25 DUP5 SWAP15 CALLCODE 0x5D INVALID COINBASE 0xEF 0xAD 0xCC DUP1 PUSH19 0x736DAB23C927F7679C018528D25AF9DA14724B 0xAB PUSH5 0x736F6C6343 STOP ADDMOD SMOD STOP CALLER "
        },
        "gasEstimates": {
          "creation": {
            "codeDepositCost": "971800",
            "executionCost": "infinite",
            "totalCost": "infinite"
          },
          "external": {
            "checkUpkeep(bytes)": "infinite",
            "enterRaffle()": "infinite",
            "getEntranceFee()": "infinite",
            "getPLayer(uint256)": "4967",
            "getRaffleState()": "2641",
            "getRecentWinner()": "2566",
            "performUpkeep(bytes)": "infinite",
            "rawFulfillRandomWords(uint256,uint256[])": "infinite"
          },
          "internal": {
            "fulfillRandomWords(uint256,uint256[] memory)": "infinite"
          }
        },
        "methodIdentifiers": {
          "checkUpkeep(bytes)": "6e04ff0d",
          "enterRaffle()": "2cfcc539",
          "getEntranceFee()": "09bc33a7",
          "getPLayer(uint256)": "344cb569",
          "getRaffleState()": "115cbaf5",
          "getRecentWinner()": "473f1ddc",
          "performUpkeep(bytes)": "4585e33b",
          "rawFulfillRandomWords(uint256,uint256[])": "1fe543e3"
        }
      },
      "storageLayout": {
        "storage": [
          {
            "astId": 195,
            "contract": "contracts/Raffle.sol:Raffle",
            "label": "s_players",
            "offset": 0,
            "slot": "0",
            "type": "t_array(t_address_payable)dyn_storage"
          },
          {
            "astId": 214,
            "contract": "contracts/Raffle.sol:Raffle",
            "label": "s_recentWinner",
            "offset": 0,
            "slot": "1",
            "type": "t_address"
          },
          {
            "astId": 217,
            "contract": "contracts/Raffle.sol:Raffle",
            "label": "s_raffleState",
            "offset": 20,
            "slot": "1",
            "type": "t_enum(RaffleState)192"
          },
          {
            "astId": 219,
            "contract": "contracts/Raffle.sol:Raffle",
            "label": "s_lastTimeStamp",
            "offset": 0,
            "slot": "2",
            "type": "t_uint256"
          }
        ],
        "types": {
          "t_address": {
            "encoding": "inplace",
            "label": "address",
            "numberOfBytes": "20"
          },
          "t_address_payable": {
            "encoding": "inplace",
            "label": "address payable",
            "numberOfBytes": "20"
          },
          "t_array(t_address_payable)dyn_storage": {
            "base": "t_address_payable",
            "encoding": "dynamic_array",
            "label": "address payable[]",
            "numberOfBytes": "32"
          },
          "t_enum(RaffleState)192": {
            "encoding": "inplace",
            "label": "enum Raffle.RaffleState",
            "numberOfBytes": "1"
          },
          "t_uint256": {
            "encoding": "inplace",
            "label": "uint256",
            "numberOfBytes": "32"
          }
        }
      },
      "userdoc": {
        "kind": "user",
        "methods": {},
        "notice": "This contract is for creating an untamperable decentralized smart contract.",
        "version": 1
      }
    }
  }
}