{
  "_format": "hh-sol-artifact-1",
  "contractName": "Raffle",
  "sourceName": "contracts/Raffle.sol",
  "abi": [
    {
      "inputs": [
        {
          "internalType": "address",
          "name": "vrfCoordinatorV2",
          "type": "address"
        },
        {
          "internalType": "uint256",
          "name": "entranceFee",
          "type": "uint256"
        },
        {
          "internalType": "bytes32",
          "name": "gasLane",
          "type": "bytes32"
        },
        {
          "internalType": "uint64",
          "name": "subscriptionId",
          "type": "uint64"
        },
        {
          "internalType": "uint32",
          "name": "callbackGasLimit",
          "type": "uint32"
        },
        {
          "internalType": "uint256",
          "name": "interval",
          "type": "uint256"
        }
      ],
      "stateMutability": "nonpayable",
      "type": "constructor"
    },
    {
      "inputs": [
        {
          "internalType": "address",
          "name": "have",
          "type": "address"
        },
        {
          "internalType": "address",
          "name": "want",
          "type": "address"
        }
      ],
      "name": "OnlyCoordinatorCanFulfill",
      "type": "error"
    },
    {
      "inputs": [],
      "name": "Raffle__NotEnoughETHEntered",
      "type": "error"
    },
    {
      "inputs": [],
      "name": "Raffle__NotOpen",
      "type": "error"
    },
    {
      "inputs": [],
      "name": "Raffle__TransferFailed",
      "type": "error"
    },
    {
      "inputs": [
        {
          "internalType": "uint256",
          "name": "currentBalance",
          "type": "uint256"
        },
        {
          "internalType": "uint256",
          "name": "numPlayers",
          "type": "uint256"
        },
        {
          "internalType": "uint256",
          "name": "raffleState",
          "type": "uint256"
        }
      ],
      "name": "Raffle__UpkeepNotNeeded",
      "type": "error"
    },
    {
      "anonymous": false,
      "inputs": [
        {
          "indexed": true,
          "internalType": "address",
          "name": "player",
          "type": "address"
        }
      ],
      "name": "RaffleEnter",
      "type": "event"
    },
    {
      "anonymous": false,
      "inputs": [
        {
          "indexed": true,
          "internalType": "uint256",
          "name": "requestId",
          "type": "uint256"
        }
      ],
      "name": "RequestedRaffleWinner",
      "type": "event"
    },
    {
      "anonymous": false,
      "inputs": [
        {
          "indexed": true,
          "internalType": "address",
          "name": "winner",
          "type": "address"
        }
      ],
      "name": "WinnerPicked",
      "type": "event"
    },
    {
      "inputs": [
        {
          "internalType": "bytes",
          "name": "",
          "type": "bytes"
        }
      ],
      "name": "checkUpkeep",
      "outputs": [
        {
          "internalType": "bool",
          "name": "upkeepNeeded",
          "type": "bool"
        },
        {
          "internalType": "bytes",
          "name": "",
          "type": "bytes"
        }
      ],
      "stateMutability": "nonpayable",
      "type": "function"
    },
    {
      "inputs": [],
      "name": "enterRaffle",
      "outputs": [],
      "stateMutability": "payable",
      "type": "function"
    },
    {
      "inputs": [],
      "name": "getEntranceFee",
      "outputs": [
        {
          "internalType": "uint256",
          "name": "",
          "type": "uint256"
        }
      ],
      "stateMutability": "view",
      "type": "function"
    },
    {
      "inputs": [],
      "name": "getInterval",
      "outputs": [
        {
          "internalType": "uint256",
          "name": "",
          "type": "uint256"
        }
      ],
      "stateMutability": "view",
      "type": "function"
    },
    {
      "inputs": [],
      "name": "getLatestTimeStamp",
      "outputs": [
        {
          "internalType": "uint256",
          "name": "",
          "type": "uint256"
        }
      ],
      "stateMutability": "view",
      "type": "function"
    },
    {
      "inputs": [],
      "name": "getNumWords",
      "outputs": [
        {
          "internalType": "uint256",
          "name": "",
          "type": "uint256"
        }
      ],
      "stateMutability": "pure",
      "type": "function"
    },
    {
      "inputs": [],
      "name": "getNumberOfPlayers",
      "outputs": [
        {
          "internalType": "uint256",
          "name": "",
          "type": "uint256"
        }
      ],
      "stateMutability": "view",
      "type": "function"
    },
    {
      "inputs": [
        {
          "internalType": "uint256",
          "name": "index",
          "type": "uint256"
        }
      ],
      "name": "getPlayer",
      "outputs": [
        {
          "internalType": "address",
          "name": "",
          "type": "address"
        }
      ],
      "stateMutability": "view",
      "type": "function"
    },
    {
      "inputs": [],
      "name": "getRaffleState",
      "outputs": [
        {
          "internalType": "enum Raffle.RaffleState",
          "name": "",
          "type": "uint8"
        }
      ],
      "stateMutability": "view",
      "type": "function"
    },
    {
      "inputs": [],
      "name": "getRecentWinner",
      "outputs": [
        {
          "internalType": "address",
          "name": "",
          "type": "address"
        }
      ],
      "stateMutability": "view",
      "type": "function"
    },
    {
      "inputs": [],
      "name": "getRequestConfirmations",
      "outputs": [
        {
          "internalType": "uint256",
          "name": "",
          "type": "uint256"
        }
      ],
      "stateMutability": "pure",
      "type": "function"
    },
    {
      "inputs": [
        {
          "internalType": "bytes",
          "name": "",
          "type": "bytes"
        }
      ],
      "name": "performUpkeep",
      "outputs": [],
      "stateMutability": "nonpayable",
      "type": "function"
    },
    {
      "inputs": [
        {
          "internalType": "uint256",
          "name": "requestId",
          "type": "uint256"
        },
        {
          "internalType": "uint256[]",
          "name": "randomWords",
          "type": "uint256[]"
        }
      ],
      "name": "rawFulfillRandomWords",
      "outputs": [],
      "stateMutability": "nonpayable",
      "type": "function"
    }
  ],
  "bytecode": "0x6101606040523480156200001257600080fd5b5060405162001858380380620018588339818101604052810190620000389190620001ad565b858073ffffffffffffffffffffffffffffffffffffffff1660808173ffffffffffffffffffffffffffffffffffffffff1660601b81525050508460a081815250508573ffffffffffffffffffffffffffffffffffffffff1660c08173ffffffffffffffffffffffffffffffffffffffff1660601b815250508360e081815250508267ffffffffffffffff166101008167ffffffffffffffff1660c01b815250508163ffffffff166101208163ffffffff1660e01b815250506000600160146101000a81548160ff02191690836001811115620001195762000118620002b5565b5b0217905550426002819055508061014081815250505050505050506200036b565b6000815190506200014b81620002e9565b92915050565b600081519050620001628162000303565b92915050565b60008151905062000179816200031d565b92915050565b600081519050620001908162000337565b92915050565b600081519050620001a78162000351565b92915050565b60008060008060008060c08789031215620001cd57620001cc620002e4565b5b6000620001dd89828a016200013a565b9650506020620001f089828a0162000168565b95505060406200020389828a0162000151565b94505060606200021689828a0162000196565b93505060806200022989828a016200017f565b92505060a06200023c89828a0162000168565b9150509295509295509295565b6000620002568262000267565b9050919050565b6000819050919050565b600073ffffffffffffffffffffffffffffffffffffffff82169050919050565b6000819050919050565b600063ffffffff82169050919050565b600067ffffffffffffffff82169050919050565b7f4e487b7100000000000000000000000000000000000000000000000000000000600052602160045260246000fd5b600080fd5b620002f48162000249565b81146200030057600080fd5b50565b6200030e816200025d565b81146200031a57600080fd5b50565b620003288162000287565b81146200033457600080fd5b50565b620003428162000291565b81146200034e57600080fd5b50565b6200035c81620002a1565b81146200036857600080fd5b50565b60805160601c60a05160c05160601c60e0516101005160c01c6101205160e01c61014051611471620003e7600039600081816107f40152610862015260006106a50152600061068201526000610661015260006106250152600081816102fa01526103f7015260008181610337015261038b01526114716000f3fe6080604052600436106100c25760003560e01c8063473f1ddc1161007f5780636e04ff0d116100595780636e04ff0d1461022557806391ad27b414610263578063e55ae4e81461028e578063fd6673f5146102cb576100c2565b8063473f1ddc146101a457806353a2c19a146101cf5780635f1b0fd8146101fa576100c2565b806309bc33a7146100c7578063115cbaf5146100f25780631fe543e31461011d5780632cfcc53914610146578063320229eb146101505780634585e33b1461017b575b600080fd5b3480156100d357600080fd5b506100dc6102f6565b6040516100e99190611065565b60405180910390f35b3480156100fe57600080fd5b5061010761031e565b604051610114919061104a565b60405180910390f35b34801561012957600080fd5b50610144600480360381019061013f9190610e2f565b610335565b005b61014e6103f5565b005b34801561015c57600080fd5b50610165610564565b6040516101729190611065565b60405180910390f35b34801561018757600080fd5b506101a2600480360381019061019d9190610d3f565b61056e565b005b3480156101b057600080fd5b506101b961076d565b6040516101c69190610f83565b60405180910390f35b3480156101db57600080fd5b506101e4610797565b6040516101f19190611065565b60405180910390f35b34801561020657600080fd5b5061020f6107a4565b60405161021c9190611065565b60405180910390f35b34801561023157600080fd5b5061024c60048036038101906102479190610d8c565b6107b1565b60405161025a929190610fc7565b60405180910390f35b34801561026f57600080fd5b5061027861085e565b6040516102859190611065565b60405180910390f35b34801561029a57600080fd5b506102b560048036038101906102b09190610dd5565b610886565b6040516102c29190610f83565b60405180910390f35b3480156102d757600080fd5b506102e06108cd565b6040516102ed9190611065565b60405180910390f35b60007f0000000000000000000000000000000000000000000000000000000000000000905090565b6000600160149054906101000a900460ff16905090565b7f000000000000000000000000000000000000000000000000000000000000000073ffffffffffffffffffffffffffffffffffffffff163373ffffffffffffffffffffffffffffffffffffffff16146103e757337f00000000000000000000000000000000000000000000000000000000000000006040517f1cf993f40000000000000000000000000000000000000000000000000000000081526004016103de929190610f9e565b60405180910390fd5b6103f182826108d9565b5050565b7f000000000000000000000000000000000000000000000000000000000000000034101561044f576040517fbd4e069500000000000000000000000000000000000000000000000000000000815260040160405180910390fd5b6000600181111561046357610462611351565b5b600160149054906101000a900460ff16600181111561048557610484611351565b5b146104bc576040517f1425571c00000000000000000000000000000000000000000000000000000000815260040160405180910390fd5b6000339080600181540180825580915050600190039060005260206000200160009091909190916101000a81548173ffffffffffffffffffffffffffffffffffffffff021916908373ffffffffffffffffffffffffffffffffffffffff1602179055503373ffffffffffffffffffffffffffffffffffffffff167f0805e1d667bddb8a95f0f09880cf94f403fb596ce79928d9f29b74203ba284d460405160405180910390a2565b6000600254905090565b6000610588604051806020016040528060008152506107b1565b509050806105f75747600080549050600160149054906101000a900460ff1660018111156105b9576105b8611351565b5b6040517f584327aa0000000000000000000000000000000000000000000000000000000081526004016105ee93929190611080565b60405180910390fd5b60018060146101000a81548160ff0219169083600181111561061c5761061b611351565b5b021790555060007f000000000000000000000000000000000000000000000000000000000000000073ffffffffffffffffffffffffffffffffffffffff16635d3b1d307f00000000000000000000000000000000000000000000000000000000000000007f000000000000000000000000000000000000000000000000000000000000000060037f000000000000000000000000000000000000000000000000000000000000000060016040518663ffffffff1660e01b81526004016106e6959493929190610ff7565b602060405180830381600087803b15801561070057600080fd5b505af1158015610714573d6000803e3d6000fd5b505050506040513d601f19601f820116820180604052508101906107389190610e02565b9050807fcd6e45c8998311cab7e9d4385596cac867e20a0587194b954fa3a731c93ce78b60405160405180910390a250505050565b6000600160009054906101000a900473ffffffffffffffffffffffffffffffffffffffff16905090565b6000600161ffff16905090565b6000600361ffff16905090565b600060606000600160149054906101000a900460ff1660018111156107d9576107d8611351565b5b600060018111156107ed576107ec611351565b5b14905060007f0000000000000000000000000000000000000000000000000000000000000000600254426108219190611160565b119050600080600080549050119050600080471190508380156108415750825b801561084a5750815b80156108535750805b955050505050915091565b60007f0000000000000000000000000000000000000000000000000000000000000000905090565b600080828154811061089b5761089a611380565b5b9060005260206000200160009054906101000a900473ffffffffffffffffffffffffffffffffffffffff169050919050565b60008080549050905090565b60008080549050826000815181106108f4576108f3611380565b5b602002602001015161090691906112c2565b9050600080828154811061091d5761091c611380565b5b9060005260206000200160009054906101000a900473ffffffffffffffffffffffffffffffffffffffff16905080600160006101000a81548173ffffffffffffffffffffffffffffffffffffffff021916908373ffffffffffffffffffffffffffffffffffffffff1602179055506000600160146101000a81548160ff021916908360018111156109b1576109b0611351565b5b0217905550600067ffffffffffffffff8111156109d1576109d06113af565b5b6040519080825280602002602001820160405280156109ff5781602001602082028036833780820191505090505b5060009080519060200190610a15929190610b0a565b504260028190555060008173ffffffffffffffffffffffffffffffffffffffff1647604051610a4390610f6e565b60006040518083038185875af1925050503d8060008114610a80576040519150601f19603f3d011682016040523d82523d6000602084013e610a85565b606091505b5050905080610ac0576040517fa1d04b3900000000000000000000000000000000000000000000000000000000815260040160405180910390fd5b8173ffffffffffffffffffffffffffffffffffffffff167f5b690ec4a06fe979403046eaeea5b3ce38524683c3001f662c8b5a829632f7df60405160405180910390a25050505050565b828054828255906000526020600020908101928215610b83579160200282015b82811115610b825782518260006101000a81548173ffffffffffffffffffffffffffffffffffffffff021916908373ffffffffffffffffffffffffffffffffffffffff16021790555091602001919060010190610b2a565b5b509050610b909190610b94565b5090565b5b80821115610bad576000816000905550600101610b95565b5090565b6000610bc4610bbf846110dc565b6110b7565b90508083825260208201905082856020860282011115610be757610be66113e8565b5b60005b85811015610c175781610bfd8882610d15565b845260208401935060208301925050600181019050610bea565b5050509392505050565b6000610c34610c2f84611108565b6110b7565b905082815260208101848484011115610c5057610c4f6113ed565b5b610c5b84828561124f565b509392505050565b600082601f830112610c7857610c776113e3565b5b8135610c88848260208601610bb1565b91505092915050565b60008083601f840112610ca757610ca66113e3565b5b8235905067ffffffffffffffff811115610cc457610cc36113de565b5b602083019150836001820283011115610ce057610cdf6113e8565b5b9250929050565b600082601f830112610cfc57610cfb6113e3565b5b8135610d0c848260208601610c21565b91505092915050565b600081359050610d2481611424565b92915050565b600081519050610d3981611424565b92915050565b60008060208385031215610d5657610d556113f7565b5b600083013567ffffffffffffffff811115610d7457610d736113f2565b5b610d8085828601610c91565b92509250509250929050565b600060208284031215610da257610da16113f7565b5b600082013567ffffffffffffffff811115610dc057610dbf6113f2565b5b610dcc84828501610ce7565b91505092915050565b600060208284031215610deb57610dea6113f7565b5b6000610df984828501610d15565b91505092915050565b600060208284031215610e1857610e176113f7565b5b6000610e2684828501610d2a565b91505092915050565b60008060408385031215610e4657610e456113f7565b5b6000610e5485828601610d15565b925050602083013567ffffffffffffffff811115610e7557610e746113f2565b5b610e8185828601610c63565b9150509250929050565b610e9481611194565b82525050565b610ea3816111a6565b82525050565b610eb2816111b2565b82525050565b6000610ec382611139565b610ecd8185611144565b9350610edd81856020860161125e565b610ee6816113fc565b840191505092915050565b610efa8161122b565b82525050565b6000610f0d600083611155565b9150610f188261140d565b600082019050919050565b610f2c816111cf565b82525050565b610f3b8161123d565b82525050565b610f4a816111fd565b82525050565b610f5981611207565b82525050565b610f6881611217565b82525050565b6000610f7982610f00565b9150819050919050565b6000602082019050610f986000830184610e8b565b92915050565b6000604082019050610fb36000830185610e8b565b610fc06020830184610e8b565b9392505050565b6000604082019050610fdc6000830185610e9a565b8181036020830152610fee8184610eb8565b90509392505050565b600060a08201905061100c6000830188610ea9565b6110196020830187610f5f565b6110266040830186610f23565b6110336060830185610f50565b6110406080830184610f32565b9695505050505050565b600060208201905061105f6000830184610ef1565b92915050565b600060208201905061107a6000830184610f41565b92915050565b60006060820190506110956000830186610f41565b6110a26020830185610f41565b6110af6040830184610f41565b949350505050565b60006110c16110d2565b90506110cd8282611291565b919050565b6000604051905090565b600067ffffffffffffffff8211156110f7576110f66113af565b5b602082029050602081019050919050565b600067ffffffffffffffff821115611123576111226113af565b5b61112c826113fc565b9050602081019050919050565b600081519050919050565b600082825260208201905092915050565b600081905092915050565b600061116b826111fd565b9150611176836111fd565b925082821015611189576111886112f3565b5b828203905092915050565b600061119f826111dd565b9050919050565b60008115159050919050565b6000819050919050565b60008190506111ca82611410565b919050565b600061ffff82169050919050565b600073ffffffffffffffffffffffffffffffffffffffff82169050919050565b6000819050919050565b600063ffffffff82169050919050565b600067ffffffffffffffff82169050919050565b6000611236826111bc565b9050919050565b6000611248826111cf565b9050919050565b82818337600083830152505050565b60005b8381101561127c578082015181840152602081019050611261565b8381111561128b576000848401525b50505050565b61129a826113fc565b810181811067ffffffffffffffff821117156112b9576112b86113af565b5b80604052505050565b60006112cd826111fd565b91506112d8836111fd565b9250826112e8576112e7611322565b5b828206905092915050565b7f4e487b7100000000000000000000000000000000000000000000000000000000600052601160045260246000fd5b7f4e487b7100000000000000000000000000000000000000000000000000000000600052601260045260246000fd5b7f4e487b7100000000000000000000000000000000000000000000000000000000600052602160045260246000fd5b7f4e487b7100000000000000000000000000000000000000000000000000000000600052603260045260246000fd5b7f4e487b7100000000000000000000000000000000000000000000000000000000600052604160045260246000fd5b600080fd5b600080fd5b600080fd5b600080fd5b600080fd5b600080fd5b6000601f19601f8301169050919050565b50565b6002811061142157611420611351565b5b50565b61142d816111fd565b811461143857600080fd5b5056fea26469706673582212202de9750d9fabfaaab0927b9e186d8567f79d8f2e5deebe76566fbedc9905d3a464736f6c63430008070033",
  "linkReferences": {},
  "deployedLinkReferences": {}
}