{
  "_format": "hh-sol-artifact-1",
  "contractName": "Raffle",
  "sourceName": "contracts/Raffle.sol",
  "abi": [
    {
      "inputs": [
        {
          "internalType": "address",
          "name": "vrfCoordinatorV2",
          "type": "address"
        },
        {
          "internalType": "uint256",
          "name": "entranceFee",
          "type": "uint256"
        },
        {
          "internalType": "bytes32",
          "name": "gasLane",
          "type": "bytes32"
        },
        {
          "internalType": "uint64",
          "name": "subscriptionId",
          "type": "uint64"
        },
        {
          "internalType": "uint32",
          "name": "callbackGasLimit",
          "type": "uint32"
        },
        {
          "internalType": "uint256",
          "name": "interval",
          "type": "uint256"
        }
      ],
      "stateMutability": "nonpayable",
      "type": "constructor"
    },
    {
      "inputs": [
        {
          "internalType": "address",
          "name": "have",
          "type": "address"
        },
        {
          "internalType": "address",
          "name": "want",
          "type": "address"
        }
      ],
      "name": "OnlyCoordinatorCanFulfill",
      "type": "error"
    },
    {
      "inputs": [],
      "name": "Raffle__NotEnoughETHEntered",
      "type": "error"
    },
    {
      "inputs": [],
      "name": "Raffle__NotOpen",
      "type": "error"
    },
    {
      "inputs": [],
      "name": "Raffle__TransferFailed",
      "type": "error"
    },
    {
      "inputs": [
        {
          "internalType": "uint256",
          "name": "currentBalance",
          "type": "uint256"
        },
        {
          "internalType": "uint256",
          "name": "numPlayers",
          "type": "uint256"
        },
        {
          "internalType": "uint256",
          "name": "raffleState",
          "type": "uint256"
        }
      ],
      "name": "Raffle__UpkeepNotNeeded",
      "type": "error"
    },
    {
      "anonymous": false,
      "inputs": [
        {
          "indexed": true,
          "internalType": "address",
          "name": "player",
          "type": "address"
        }
      ],
      "name": "RaffleEnter",
      "type": "event"
    },
    {
      "anonymous": false,
      "inputs": [
        {
          "indexed": true,
          "internalType": "uint256",
          "name": "requestId",
          "type": "uint256"
        }
      ],
      "name": "RequestedRaffleWinner",
      "type": "event"
    },
    {
      "anonymous": false,
      "inputs": [
        {
          "indexed": true,
          "internalType": "address",
          "name": "winner",
          "type": "address"
        }
      ],
      "name": "WinnerPicked",
      "type": "event"
    },
    {
      "inputs": [
        {
          "internalType": "bytes",
          "name": "",
          "type": "bytes"
        }
      ],
      "name": "checkUpkeep",
      "outputs": [
        {
          "internalType": "bool",
          "name": "upkeepNeeded",
          "type": "bool"
        },
        {
          "internalType": "bytes",
          "name": "",
          "type": "bytes"
        }
      ],
      "stateMutability": "nonpayable",
      "type": "function"
    },
    {
      "inputs": [],
      "name": "enterRaffle",
      "outputs": [],
      "stateMutability": "payable",
      "type": "function"
    },
    {
      "inputs": [],
      "name": "getEntranceFee",
      "outputs": [
        {
          "internalType": "uint256",
          "name": "",
          "type": "uint256"
        }
      ],
      "stateMutability": "view",
      "type": "function"
    },
    {
      "inputs": [],
      "name": "getLatestTimeStamp",
      "outputs": [
        {
          "internalType": "uint256",
          "name": "",
          "type": "uint256"
        }
      ],
      "stateMutability": "view",
      "type": "function"
    },
    {
      "inputs": [],
      "name": "getNumWords",
      "outputs": [
        {
          "internalType": "uint256",
          "name": "",
          "type": "uint256"
        }
      ],
      "stateMutability": "pure",
      "type": "function"
    },
    {
      "inputs": [],
      "name": "getNumberOfPlayers",
      "outputs": [
        {
          "internalType": "uint256",
          "name": "",
          "type": "uint256"
        }
      ],
      "stateMutability": "view",
      "type": "function"
    },
    {
      "inputs": [
        {
          "internalType": "uint256",
          "name": "index",
          "type": "uint256"
        }
      ],
      "name": "getPLayer",
      "outputs": [
        {
          "internalType": "address",
          "name": "",
          "type": "address"
        }
      ],
      "stateMutability": "view",
      "type": "function"
    },
    {
      "inputs": [],
      "name": "getRaffleState",
      "outputs": [
        {
          "internalType": "enum Raffle.RaffleState",
          "name": "",
          "type": "uint8"
        }
      ],
      "stateMutability": "view",
      "type": "function"
    },
    {
      "inputs": [],
      "name": "getRecentWinner",
      "outputs": [
        {
          "internalType": "address",
          "name": "",
          "type": "address"
        }
      ],
      "stateMutability": "view",
      "type": "function"
    },
    {
      "inputs": [],
      "name": "getRequestConfirmations",
      "outputs": [
        {
          "internalType": "uint256",
          "name": "",
          "type": "uint256"
        }
      ],
      "stateMutability": "pure",
      "type": "function"
    },
    {
      "inputs": [
        {
          "internalType": "bytes",
          "name": "",
          "type": "bytes"
        }
      ],
      "name": "performUpkeep",
      "outputs": [],
      "stateMutability": "nonpayable",
      "type": "function"
    },
    {
      "inputs": [
        {
          "internalType": "uint256",
          "name": "requestId",
          "type": "uint256"
        },
        {
          "internalType": "uint256[]",
          "name": "randomWords",
          "type": "uint256[]"
        }
      ],
      "name": "rawFulfillRandomWords",
      "outputs": [],
      "stateMutability": "nonpayable",
      "type": "function"
    }
  ],
  "bytecode": "0x6101606040523480156200001257600080fd5b50604051620017e3380380620017e38339818101604052810190620000389190620001ad565b858073ffffffffffffffffffffffffffffffffffffffff1660808173ffffffffffffffffffffffffffffffffffffffff1660601b81525050508460a081815250508573ffffffffffffffffffffffffffffffffffffffff1660c08173ffffffffffffffffffffffffffffffffffffffff1660601b815250508360e081815250508267ffffffffffffffff166101008167ffffffffffffffff1660c01b815250508163ffffffff166101208163ffffffff1660e01b815250506000600160146101000a81548160ff02191690836001811115620001195762000118620002b5565b5b0217905550426002819055508061014081815250505050505050506200036b565b6000815190506200014b81620002e9565b92915050565b600081519050620001628162000303565b92915050565b60008151905062000179816200031d565b92915050565b600081519050620001908162000337565b92915050565b600081519050620001a78162000351565b92915050565b60008060008060008060c08789031215620001cd57620001cc620002e4565b5b6000620001dd89828a016200013a565b9650506020620001f089828a0162000168565b95505060406200020389828a0162000151565b94505060606200021689828a0162000196565b93505060806200022989828a016200017f565b92505060a06200023c89828a0162000168565b9150509295509295509295565b6000620002568262000267565b9050919050565b6000819050919050565b600073ffffffffffffffffffffffffffffffffffffffff82169050919050565b6000819050919050565b600063ffffffff82169050919050565b600067ffffffffffffffff82169050919050565b7f4e487b7100000000000000000000000000000000000000000000000000000000600052602160045260246000fd5b600080fd5b620002f48162000249565b81146200030057600080fd5b50565b6200030e816200025d565b81146200031a57600080fd5b50565b620003288162000287565b81146200033457600080fd5b50565b620003428162000291565b81146200034e57600080fd5b50565b6200035c81620002a1565b81146200036857600080fd5b50565b60805160601c60a05160c05160601c60e0516101005160c01c6101205160e01c61014051611403620003e060003960006107f5015260006106a60152600061068301526000610662015260006106260152600081816102b401526103b10152600081816102f1015261034501526114036000f3fe6080604052600436106100a75760003560e01c80634585e33b116100645780634585e33b1461019d578063473f1ddc146101c657806353a2c19a146101f15780635f1b0fd81461021c5780636e04ff0d14610247578063fd6673f514610285576100a7565b806309bc33a7146100ac578063115cbaf5146100d75780631fe543e3146101025780632cfcc5391461012b578063320229eb14610135578063344cb56914610160575b600080fd5b3480156100b857600080fd5b506100c16102b0565b6040516100ce9190610ff7565b60405180910390f35b3480156100e357600080fd5b506100ec6102d8565b6040516100f99190610fdc565b60405180910390f35b34801561010e57600080fd5b5061012960048036038101906101249190610dc1565b6102ef565b005b6101336103af565b005b34801561014157600080fd5b5061014a61051e565b6040516101579190610ff7565b60405180910390f35b34801561016c57600080fd5b5061018760048036038101906101829190610d67565b610528565b6040516101949190610f15565b60405180910390f35b3480156101a957600080fd5b506101c460048036038101906101bf9190610cd1565b61056f565b005b3480156101d257600080fd5b506101db61076e565b6040516101e89190610f15565b60405180910390f35b3480156101fd57600080fd5b50610206610798565b6040516102139190610ff7565b60405180910390f35b34801561022857600080fd5b506102316107a5565b60405161023e9190610ff7565b60405180910390f35b34801561025357600080fd5b5061026e60048036038101906102699190610d1e565b6107b2565b60405161027c929190610f59565b60405180910390f35b34801561029157600080fd5b5061029a61085f565b6040516102a79190610ff7565b60405180910390f35b60007f0000000000000000000000000000000000000000000000000000000000000000905090565b6000600160149054906101000a900460ff16905090565b7f000000000000000000000000000000000000000000000000000000000000000073ffffffffffffffffffffffffffffffffffffffff163373ffffffffffffffffffffffffffffffffffffffff16146103a157337f00000000000000000000000000000000000000000000000000000000000000006040517f1cf993f4000000000000000000000000000000000000000000000000000000008152600401610398929190610f30565b60405180910390fd5b6103ab828261086b565b5050565b7f0000000000000000000000000000000000000000000000000000000000000000341015610409576040517fbd4e069500000000000000000000000000000000000000000000000000000000815260040160405180910390fd5b6000600181111561041d5761041c6112e3565b5b600160149054906101000a900460ff16600181111561043f5761043e6112e3565b5b14610476576040517f1425571c00000000000000000000000000000000000000000000000000000000815260040160405180910390fd5b6000339080600181540180825580915050600190039060005260206000200160009091909190916101000a81548173ffffffffffffffffffffffffffffffffffffffff021916908373ffffffffffffffffffffffffffffffffffffffff1602179055503373ffffffffffffffffffffffffffffffffffffffff167f0805e1d667bddb8a95f0f09880cf94f403fb596ce79928d9f29b74203ba284d460405160405180910390a2565b6000600254905090565b600080828154811061053d5761053c611312565b5b9060005260206000200160009054906101000a900473ffffffffffffffffffffffffffffffffffffffff169050919050565b6000610589604051806020016040528060008152506107b2565b509050806105f85747600080549050600160149054906101000a900460ff1660018111156105ba576105b96112e3565b5b6040517f584327aa0000000000000000000000000000000000000000000000000000000081526004016105ef93929190611012565b60405180910390fd5b60018060146101000a81548160ff0219169083600181111561061d5761061c6112e3565b5b021790555060007f000000000000000000000000000000000000000000000000000000000000000073ffffffffffffffffffffffffffffffffffffffff16635d3b1d307f00000000000000000000000000000000000000000000000000000000000000007f000000000000000000000000000000000000000000000000000000000000000060037f000000000000000000000000000000000000000000000000000000000000000060016040518663ffffffff1660e01b81526004016106e7959493929190610f89565b602060405180830381600087803b15801561070157600080fd5b505af1158015610715573d6000803e3d6000fd5b505050506040513d601f19601f820116820180604052508101906107399190610d94565b9050807fcd6e45c8998311cab7e9d4385596cac867e20a0587194b954fa3a731c93ce78b60405160405180910390a250505050565b6000600160009054906101000a900473ffffffffffffffffffffffffffffffffffffffff16905090565b6000600161ffff16905090565b6000600361ffff16905090565b600060606000600160149054906101000a900460ff1660018111156107da576107d96112e3565b5b600060018111156107ee576107ed6112e3565b5b14905060007f00000000000000000000000000000000000000000000000000000000000000006002544261082291906110f2565b119050600080600080549050119050600080471190508380156108425750825b801561084b5750815b80156108545750805b955050505050915091565b60008080549050905090565b600080805490508260008151811061088657610885611312565b5b60200260200101516108989190611254565b905060008082815481106108af576108ae611312565b5b9060005260206000200160009054906101000a900473ffffffffffffffffffffffffffffffffffffffff16905080600160006101000a81548173ffffffffffffffffffffffffffffffffffffffff021916908373ffffffffffffffffffffffffffffffffffffffff1602179055506000600160146101000a81548160ff02191690836001811115610943576109426112e3565b5b0217905550600067ffffffffffffffff81111561096357610962611341565b5b6040519080825280602002602001820160405280156109915781602001602082028036833780820191505090505b50600090805190602001906109a7929190610a9c565b504260028190555060008173ffffffffffffffffffffffffffffffffffffffff16476040516109d590610f00565b60006040518083038185875af1925050503d8060008114610a12576040519150601f19603f3d011682016040523d82523d6000602084013e610a17565b606091505b5050905080610a52576040517fa1d04b3900000000000000000000000000000000000000000000000000000000815260040160405180910390fd5b8173ffffffffffffffffffffffffffffffffffffffff167f5b690ec4a06fe979403046eaeea5b3ce38524683c3001f662c8b5a829632f7df60405160405180910390a25050505050565b828054828255906000526020600020908101928215610b15579160200282015b82811115610b145782518260006101000a81548173ffffffffffffffffffffffffffffffffffffffff021916908373ffffffffffffffffffffffffffffffffffffffff16021790555091602001919060010190610abc565b5b509050610b229190610b26565b5090565b5b80821115610b3f576000816000905550600101610b27565b5090565b6000610b56610b518461106e565b611049565b90508083825260208201905082856020860282011115610b7957610b7861137a565b5b60005b85811015610ba95781610b8f8882610ca7565b845260208401935060208301925050600181019050610b7c565b5050509392505050565b6000610bc6610bc18461109a565b611049565b905082815260208101848484011115610be257610be161137f565b5b610bed8482856111e1565b509392505050565b600082601f830112610c0a57610c09611375565b5b8135610c1a848260208601610b43565b91505092915050565b60008083601f840112610c3957610c38611375565b5b8235905067ffffffffffffffff811115610c5657610c55611370565b5b602083019150836001820283011115610c7257610c7161137a565b5b9250929050565b600082601f830112610c8e57610c8d611375565b5b8135610c9e848260208601610bb3565b91505092915050565b600081359050610cb6816113b6565b92915050565b600081519050610ccb816113b6565b92915050565b60008060208385031215610ce857610ce7611389565b5b600083013567ffffffffffffffff811115610d0657610d05611384565b5b610d1285828601610c23565b92509250509250929050565b600060208284031215610d3457610d33611389565b5b600082013567ffffffffffffffff811115610d5257610d51611384565b5b610d5e84828501610c79565b91505092915050565b600060208284031215610d7d57610d7c611389565b5b6000610d8b84828501610ca7565b91505092915050565b600060208284031215610daa57610da9611389565b5b6000610db884828501610cbc565b91505092915050565b60008060408385031215610dd857610dd7611389565b5b6000610de685828601610ca7565b925050602083013567ffffffffffffffff811115610e0757610e06611384565b5b610e1385828601610bf5565b9150509250929050565b610e2681611126565b82525050565b610e3581611138565b82525050565b610e4481611144565b82525050565b6000610e55826110cb565b610e5f81856110d6565b9350610e6f8185602086016111f0565b610e788161138e565b840191505092915050565b610e8c816111bd565b82525050565b6000610e9f6000836110e7565b9150610eaa8261139f565b600082019050919050565b610ebe81611161565b82525050565b610ecd816111cf565b82525050565b610edc8161118f565b82525050565b610eeb81611199565b82525050565b610efa816111a9565b82525050565b6000610f0b82610e92565b9150819050919050565b6000602082019050610f2a6000830184610e1d565b92915050565b6000604082019050610f456000830185610e1d565b610f526020830184610e1d565b9392505050565b6000604082019050610f6e6000830185610e2c565b8181036020830152610f808184610e4a565b90509392505050565b600060a082019050610f9e6000830188610e3b565b610fab6020830187610ef1565b610fb86040830186610eb5565b610fc56060830185610ee2565b610fd26080830184610ec4565b9695505050505050565b6000602082019050610ff16000830184610e83565b92915050565b600060208201905061100c6000830184610ed3565b92915050565b60006060820190506110276000830186610ed3565b6110346020830185610ed3565b6110416040830184610ed3565b949350505050565b6000611053611064565b905061105f8282611223565b919050565b6000604051905090565b600067ffffffffffffffff82111561108957611088611341565b5b602082029050602081019050919050565b600067ffffffffffffffff8211156110b5576110b4611341565b5b6110be8261138e565b9050602081019050919050565b600081519050919050565b600082825260208201905092915050565b600081905092915050565b60006110fd8261118f565b91506111088361118f565b92508282101561111b5761111a611285565b5b828203905092915050565b60006111318261116f565b9050919050565b60008115159050919050565b6000819050919050565b600081905061115c826113a2565b919050565b600061ffff82169050919050565b600073ffffffffffffffffffffffffffffffffffffffff82169050919050565b6000819050919050565b600063ffffffff82169050919050565b600067ffffffffffffffff82169050919050565b60006111c88261114e565b9050919050565b60006111da82611161565b9050919050565b82818337600083830152505050565b60005b8381101561120e5780820151818401526020810190506111f3565b8381111561121d576000848401525b50505050565b61122c8261138e565b810181811067ffffffffffffffff8211171561124b5761124a611341565b5b80604052505050565b600061125f8261118f565b915061126a8361118f565b92508261127a576112796112b4565b5b828206905092915050565b7f4e487b7100000000000000000000000000000000000000000000000000000000600052601160045260246000fd5b7f4e487b7100000000000000000000000000000000000000000000000000000000600052601260045260246000fd5b7f4e487b7100000000000000000000000000000000000000000000000000000000600052602160045260246000fd5b7f4e487b7100000000000000000000000000000000000000000000000000000000600052603260045260246000fd5b7f4e487b7100000000000000000000000000000000000000000000000000000000600052604160045260246000fd5b600080fd5b600080fd5b600080fd5b600080fd5b600080fd5b600080fd5b6000601f19601f8301169050919050565b50565b600281106113b3576113b26112e3565b5b50565b6113bf8161118f565b81146113ca57600080fd5b5056fea26469706673582212207adeb5d8be9c105ed89d19edc50c2724fa4e254ab2cb33efa5ed9f8ac8aef80464736f6c63430008070033",
  "linkReferences": {},
  "deployedLinkReferences": {}
}